{
	"CrowdFunding .sol": {
		"CrowdFunding": {
			"abi": [
				{
					"inputs": [
						{
							"internalType": "uint256",
							"name": "_target",
							"type": "uint256"
						},
						{
							"internalType": "uint256",
							"name": "_deadline",
							"type": "uint256"
						}
					],
					"stateMutability": "nonpayable",
					"type": "constructor"
				},
				{
					"anonymous": false,
					"inputs": [
						{
							"indexed": false,
							"internalType": "address",
							"name": "contributor",
							"type": "address"
						},
						{
							"indexed": false,
							"internalType": "uint256",
							"name": "amount",
							"type": "uint256"
						}
					],
					"name": "ContributionReceived",
					"type": "event"
				},
				{
					"anonymous": false,
					"inputs": [
						{
							"indexed": false,
							"internalType": "address",
							"name": "manager",
							"type": "address"
						},
						{
							"indexed": false,
							"internalType": "uint256",
							"name": "amount",
							"type": "uint256"
						}
					],
					"name": "FundsWithdrawn",
					"type": "event"
				},
				{
					"inputs": [
						{
							"internalType": "address",
							"name": "",
							"type": "address"
						}
					],
					"name": "contributors",
					"outputs": [
						{
							"internalType": "uint256",
							"name": "",
							"type": "uint256"
						}
					],
					"stateMutability": "view",
					"type": "function"
				},
				{
					"inputs": [],
					"name": "deadline",
					"outputs": [
						{
							"internalType": "uint256",
							"name": "",
							"type": "uint256"
						}
					],
					"stateMutability": "view",
					"type": "function"
				},
				{
					"inputs": [],
					"name": "getContractBalance",
					"outputs": [
						{
							"internalType": "uint256",
							"name": "",
							"type": "uint256"
						}
					],
					"stateMutability": "view",
					"type": "function"
				},
				{
					"inputs": [],
					"name": "manager",
					"outputs": [
						{
							"internalType": "address",
							"name": "",
							"type": "address"
						}
					],
					"stateMutability": "view",
					"type": "function"
				},
				{
					"inputs": [],
					"name": "minimumContribution",
					"outputs": [
						{
							"internalType": "uint256",
							"name": "",
							"type": "uint256"
						}
					],
					"stateMutability": "view",
					"type": "function"
				},
				{
					"inputs": [],
					"name": "noOfContributors",
					"outputs": [
						{
							"internalType": "uint256",
							"name": "",
							"type": "uint256"
						}
					],
					"stateMutability": "view",
					"type": "function"
				},
				{
					"inputs": [],
					"name": "raisedAmount",
					"outputs": [
						{
							"internalType": "uint256",
							"name": "",
							"type": "uint256"
						}
					],
					"stateMutability": "view",
					"type": "function"
				},
				{
					"inputs": [],
					"name": "refund",
					"outputs": [],
					"stateMutability": "nonpayable",
					"type": "function"
				},
				{
					"inputs": [],
					"name": "sendEth",
					"outputs": [],
					"stateMutability": "payable",
					"type": "function"
				},
				{
					"inputs": [],
					"name": "target",
					"outputs": [
						{
							"internalType": "uint256",
							"name": "",
							"type": "uint256"
						}
					],
					"stateMutability": "view",
					"type": "function"
				},
				{
					"inputs": [],
					"name": "terminate",
					"outputs": [],
					"stateMutability": "nonpayable",
					"type": "function"
				},
				{
					"inputs": [],
					"name": "withdrawFunds",
					"outputs": [],
					"stateMutability": "nonpayable",
					"type": "function"
				}
			],
			"devdoc": {
				"kind": "dev",
				"methods": {},
				"version": 1
			},
			"evm": {
				"assembly": "    /* \"CrowdFunding .sol\":61:2401  contract CrowdFunding {... */\n  mstore(0x40, 0x80)\n    /* \"CrowdFunding .sol\":469:666  constructor(uint _target, uint _deadline) {... */\n  callvalue\n  dup1\n  iszero\n  tag_1\n  jumpi\n  0x00\n  dup1\n  revert\ntag_1:\n  pop\n  mload(0x40)\n  sub(codesize, bytecodeSize)\n  dup1\n  bytecodeSize\n  dup4\n  codecopy\n  dup2\n  dup2\n  add\n  0x40\n  mstore\n  dup2\n  add\n  swap1\n  tag_2\n  swap2\n  swap1\n  tag_3\n  jump\t// in\ntag_2:\n    /* \"CrowdFunding .sol\":531:538  _target */\n  dup2\n    /* \"CrowdFunding .sol\":522:528  target */\n  0x04\n    /* \"CrowdFunding .sol\":522:538  target = _target */\n  dup2\n  swap1\n  sstore\n  pop\n    /* \"CrowdFunding .sol\":578:587  _deadline */\n  dup1\n    /* \"CrowdFunding .sol\":560:575  block.timestamp */\n  timestamp\n    /* \"CrowdFunding .sol\":560:587  block.timestamp + _deadline */\n  tag_6\n  swap2\n  swap1\n  tag_7\n  jump\t// in\ntag_6:\n    /* \"CrowdFunding .sol\":549:557  deadline */\n  0x03\n    /* \"CrowdFunding .sol\":549:587  deadline = block.timestamp + _deadline */\n  dup2\n  swap1\n  sstore\n  pop\n    /* \"CrowdFunding .sol\":620:627  100 wei */\n  0x64\n    /* \"CrowdFunding .sol\":598:617  minimumContribution */\n  0x02\n    /* \"CrowdFunding .sol\":598:627  minimumContribution = 100 wei */\n  dup2\n  swap1\n  sstore\n  pop\n    /* \"CrowdFunding .sol\":648:658  msg.sender */\n  caller\n    /* \"CrowdFunding .sol\":638:645  manager */\n  0x01\n  0x00\n    /* \"CrowdFunding .sol\":638:658  manager = msg.sender */\n  0x0100\n  exp\n  dup2\n  sload\n  dup2\n  0xffffffffffffffffffffffffffffffffffffffff\n  mul\n  not\n  and\n  swap1\n  dup4\n  0xffffffffffffffffffffffffffffffffffffffff\n  and\n  mul\n  or\n  swap1\n  sstore\n  pop\n    /* \"CrowdFunding .sol\":469:666  constructor(uint _target, uint _deadline) {... */\n  pop\n  pop\n    /* \"CrowdFunding .sol\":61:2401  contract CrowdFunding {... */\n  jump(tag_8)\n    /* \"#utility.yul\":88:205   */\ntag_10:\n    /* \"#utility.yul\":197:198   */\n  0x00\n    /* \"#utility.yul\":194:195   */\n  dup1\n    /* \"#utility.yul\":187:199   */\n  revert\n    /* \"#utility.yul\":334:411   */\ntag_12:\n    /* \"#utility.yul\":371:378   */\n  0x00\n    /* \"#utility.yul\":400:405   */\n  dup2\n    /* \"#utility.yul\":389:405   */\n  swap1\n  pop\n    /* \"#utility.yul\":334:411   */\n  swap2\n  swap1\n  pop\n  jump\t// out\n    /* \"#utility.yul\":417:539   */\ntag_13:\n    /* \"#utility.yul\":490:514   */\n  tag_22\n    /* \"#utility.yul\":508:513   */\n  dup2\n    /* \"#utility.yul\":490:514   */\n  tag_12\n  jump\t// in\ntag_22:\n    /* \"#utility.yul\":483:488   */\n  dup2\n    /* \"#utility.yul\":480:515   */\n  eq\n    /* \"#utility.yul\":470:533   */\n  tag_23\n  jumpi\n    /* \"#utility.yul\":529:530   */\n  0x00\n    /* \"#utility.yul\":526:527   */\n  dup1\n    /* \"#utility.yul\":519:531   */\n  revert\n    /* \"#utility.yul\":470:533   */\ntag_23:\n    /* \"#utility.yul\":417:539   */\n  pop\n  jump\t// out\n    /* \"#utility.yul\":545:688   */\ntag_14:\n    /* \"#utility.yul\":602:607   */\n  0x00\n    /* \"#utility.yul\":633:639   */\n  dup2\n    /* \"#utility.yul\":627:640   */\n  mload\n    /* \"#utility.yul\":618:640   */\n  swap1\n  pop\n    /* \"#utility.yul\":649:682   */\n  tag_25\n    /* \"#utility.yul\":676:681   */\n  dup2\n    /* \"#utility.yul\":649:682   */\n  tag_13\n  jump\t// in\ntag_25:\n    /* \"#utility.yul\":545:688   */\n  swap3\n  swap2\n  pop\n  pop\n  jump\t// out\n    /* \"#utility.yul\":694:1201   */\ntag_3:\n    /* \"#utility.yul\":773:779   */\n  0x00\n    /* \"#utility.yul\":781:787   */\n  dup1\n    /* \"#utility.yul\":830:832   */\n  0x40\n    /* \"#utility.yul\":818:827   */\n  dup4\n    /* \"#utility.yul\":809:816   */\n  dup6\n    /* \"#utility.yul\":805:828   */\n  sub\n    /* \"#utility.yul\":801:833   */\n  slt\n    /* \"#utility.yul\":798:917   */\n  iszero\n  tag_27\n  jumpi\n    /* \"#utility.yul\":836:915   */\n  tag_28\n  tag_10\n  jump\t// in\ntag_28:\n    /* \"#utility.yul\":798:917   */\ntag_27:\n    /* \"#utility.yul\":956:957   */\n  0x00\n    /* \"#utility.yul\":981:1045   */\n  tag_29\n    /* \"#utility.yul\":1037:1044   */\n  dup6\n    /* \"#utility.yul\":1028:1034   */\n  dup3\n    /* \"#utility.yul\":1017:1026   */\n  dup7\n    /* \"#utility.yul\":1013:1035   */\n  add\n    /* \"#utility.yul\":981:1045   */\n  tag_14\n  jump\t// in\ntag_29:\n    /* \"#utility.yul\":971:1045   */\n  swap3\n  pop\n    /* \"#utility.yul\":927:1055   */\n  pop\n    /* \"#utility.yul\":1094:1096   */\n  0x20\n    /* \"#utility.yul\":1120:1184   */\n  tag_30\n    /* \"#utility.yul\":1176:1183   */\n  dup6\n    /* \"#utility.yul\":1167:1173   */\n  dup3\n    /* \"#utility.yul\":1156:1165   */\n  dup7\n    /* \"#utility.yul\":1152:1174   */\n  add\n    /* \"#utility.yul\":1120:1184   */\n  tag_14\n  jump\t// in\ntag_30:\n    /* \"#utility.yul\":1110:1184   */\n  swap2\n  pop\n    /* \"#utility.yul\":1065:1194   */\n  pop\n    /* \"#utility.yul\":694:1201   */\n  swap3\n  pop\n  swap3\n  swap1\n  pop\n  jump\t// out\n    /* \"#utility.yul\":1207:1387   */\ntag_15:\n    /* \"#utility.yul\":1255:1332   */\n  0x4e487b7100000000000000000000000000000000000000000000000000000000\n    /* \"#utility.yul\":1252:1253   */\n  0x00\n    /* \"#utility.yul\":1245:1333   */\n  mstore\n    /* \"#utility.yul\":1352:1356   */\n  0x11\n    /* \"#utility.yul\":1349:1350   */\n  0x04\n    /* \"#utility.yul\":1342:1357   */\n  mstore\n    /* \"#utility.yul\":1376:1380   */\n  0x24\n    /* \"#utility.yul\":1373:1374   */\n  0x00\n    /* \"#utility.yul\":1366:1381   */\n  revert\n    /* \"#utility.yul\":1393:1584   */\ntag_7:\n    /* \"#utility.yul\":1433:1436   */\n  0x00\n    /* \"#utility.yul\":1452:1472   */\n  tag_33\n    /* \"#utility.yul\":1470:1471   */\n  dup3\n    /* \"#utility.yul\":1452:1472   */\n  tag_12\n  jump\t// in\ntag_33:\n    /* \"#utility.yul\":1447:1472   */\n  swap2\n  pop\n    /* \"#utility.yul\":1486:1506   */\n  tag_34\n    /* \"#utility.yul\":1504:1505   */\n  dup4\n    /* \"#utility.yul\":1486:1506   */\n  tag_12\n  jump\t// in\ntag_34:\n    /* \"#utility.yul\":1481:1506   */\n  swap3\n  pop\n    /* \"#utility.yul\":1529:1530   */\n  dup3\n    /* \"#utility.yul\":1526:1527   */\n  dup3\n    /* \"#utility.yul\":1522:1531   */\n  add\n    /* \"#utility.yul\":1515:1531   */\n  swap1\n  pop\n    /* \"#utility.yul\":1550:1553   */\n  dup1\n    /* \"#utility.yul\":1547:1548   */\n  dup3\n    /* \"#utility.yul\":1544:1554   */\n  gt\n    /* \"#utility.yul\":1541:1577   */\n  iszero\n  tag_35\n  jumpi\n    /* \"#utility.yul\":1557:1575   */\n  tag_36\n  tag_15\n  jump\t// in\ntag_36:\n    /* \"#utility.yul\":1541:1577   */\ntag_35:\n    /* \"#utility.yul\":1393:1584   */\n  swap3\n  swap2\n  pop\n  pop\n  jump\t// out\n    /* \"CrowdFunding .sol\":61:2401  contract CrowdFunding {... */\ntag_8:\n  dataSize(sub_0)\n  dup1\n  dataOffset(sub_0)\n  0x00\n  codecopy\n  0x00\n  return\nstop\n\nsub_0: assembly {\n        /* \"CrowdFunding .sol\":61:2401  contract CrowdFunding {... */\n      mstore(0x40, 0x80)\n      jumpi(tag_1, lt(calldatasize, 0x04))\n      shr(0xe0, calldataload(0x00))\n      dup1\n      0x4e260f6f\n      gt\n      tag_14\n      jumpi\n      dup1\n      0x4e260f6f\n      eq\n      tag_8\n      jumpi\n      dup1\n      0x590e1ae3\n      eq\n      tag_9\n      jumpi\n      dup1\n      0x6f9fb98a\n      eq\n      tag_10\n      jumpi\n      dup1\n      0x937e09b1\n      eq\n      tag_11\n      jumpi\n      dup1\n      0xc59ee1dc\n      eq\n      tag_12\n      jumpi\n      dup1\n      0xd4b83992\n      eq\n      tag_13\n      jumpi\n      jump(tag_1)\n    tag_14:\n      dup1\n      0x06e99fef\n      eq\n      tag_2\n      jumpi\n      dup1\n      0x0c08bf88\n      eq\n      tag_3\n      jumpi\n      dup1\n      0x1f6d4942\n      eq\n      tag_4\n      jumpi\n      dup1\n      0x24600fc3\n      eq\n      tag_5\n      jumpi\n      dup1\n      0x29dcb0cf\n      eq\n      tag_6\n      jumpi\n      dup1\n      0x481c6a75\n      eq\n      tag_7\n      jumpi\n    tag_1:\n      0x00\n      dup1\n      revert\n        /* \"CrowdFunding .sol\":678:1112  function sendEth() public payable {... */\n    tag_2:\n      tag_15\n      tag_16\n      jump\t// in\n    tag_15:\n      stop\n        /* \"CrowdFunding .sol\":2058:2396  function terminate() public {... */\n    tag_3:\n      callvalue\n      dup1\n      iszero\n      tag_17\n      jumpi\n      0x00\n      dup1\n      revert\n    tag_17:\n      pop\n      tag_18\n      tag_19\n      jump\t// in\n    tag_18:\n      stop\n        /* \"CrowdFunding .sol\":90:134  mapping(address => uint) public contributors */\n    tag_4:\n      callvalue\n      dup1\n      iszero\n      tag_20\n      jumpi\n      0x00\n      dup1\n      revert\n    tag_20:\n      pop\n      tag_21\n      0x04\n      dup1\n      calldatasize\n      sub\n      dup2\n      add\n      swap1\n      tag_22\n      swap2\n      swap1\n      tag_23\n      jump\t// in\n    tag_22:\n      tag_24\n      jump\t// in\n    tag_21:\n      mload(0x40)\n      tag_25\n      swap2\n      swap1\n      tag_26\n      jump\t// in\n    tag_25:\n      mload(0x40)\n      dup1\n      swap2\n      sub\n      swap1\n      return\n        /* \"CrowdFunding .sol\":1231:1628  function withdrawFunds() public {... */\n    tag_5:\n      callvalue\n      dup1\n      iszero\n      tag_27\n      jumpi\n      0x00\n      dup1\n      revert\n    tag_27:\n      pop\n      tag_28\n      tag_29\n      jump\t// in\n    tag_28:\n      stop\n        /* \"CrowdFunding .sol\":208:228  uint public deadline */\n    tag_6:\n      callvalue\n      dup1\n      iszero\n      tag_30\n      jumpi\n      0x00\n      dup1\n      revert\n    tag_30:\n      pop\n      tag_31\n      tag_32\n      jump\t// in\n    tag_31:\n      mload(0x40)\n      tag_33\n      swap2\n      swap1\n      tag_26\n      jump\t// in\n    tag_33:\n      mload(0x40)\n      dup1\n      swap2\n      sub\n      swap1\n      return\n        /* \"CrowdFunding .sol\":141:163  address public manager */\n    tag_7:\n      callvalue\n      dup1\n      iszero\n      tag_34\n      jumpi\n      0x00\n      dup1\n      revert\n    tag_34:\n      pop\n      tag_35\n      tag_36\n      jump\t// in\n    tag_35:\n      mload(0x40)\n      tag_37\n      swap2\n      swap1\n      tag_38\n      jump\t// in\n    tag_37:\n      mload(0x40)\n      dup1\n      swap2\n      sub\n      swap1\n      return\n        /* \"CrowdFunding .sol\":291:319  uint public noOfContributors */\n    tag_8:\n      callvalue\n      dup1\n      iszero\n      tag_39\n      jumpi\n      0x00\n      dup1\n      revert\n    tag_39:\n      pop\n      tag_40\n      tag_41\n      jump\t// in\n    tag_40:\n      mload(0x40)\n      tag_42\n      swap2\n      swap1\n      tag_26\n      jump\t// in\n    tag_42:\n      mload(0x40)\n      dup1\n      swap2\n      sub\n      swap1\n      return\n        /* \"CrowdFunding .sol\":1636:2050  function refund() public {... */\n    tag_9:\n      callvalue\n      dup1\n      iszero\n      tag_43\n      jumpi\n      0x00\n      dup1\n      revert\n    tag_43:\n      pop\n      tag_44\n      tag_45\n      jump\t// in\n    tag_44:\n      stop\n        /* \"CrowdFunding .sol\":1120:1223  function getContractBalance() public view returns(uint) {... */\n    tag_10:\n      callvalue\n      dup1\n      iszero\n      tag_46\n      jumpi\n      0x00\n      dup1\n      revert\n    tag_46:\n      pop\n      tag_47\n      tag_48\n      jump\t// in\n    tag_47:\n      mload(0x40)\n      tag_49\n      swap2\n      swap1\n      tag_26\n      jump\t// in\n    tag_49:\n      mload(0x40)\n      dup1\n      swap2\n      sub\n      swap1\n      return\n        /* \"CrowdFunding .sol\":170:201  uint public minimumContribution */\n    tag_11:\n      callvalue\n      dup1\n      iszero\n      tag_50\n      jumpi\n      0x00\n      dup1\n      revert\n    tag_50:\n      pop\n      tag_51\n      tag_52\n      jump\t// in\n    tag_51:\n      mload(0x40)\n      tag_53\n      swap2\n      swap1\n      tag_26\n      jump\t// in\n    tag_53:\n      mload(0x40)\n      dup1\n      swap2\n      sub\n      swap1\n      return\n        /* \"CrowdFunding .sol\":260:284  uint public raisedAmount */\n    tag_12:\n      callvalue\n      dup1\n      iszero\n      tag_54\n      jumpi\n      0x00\n      dup1\n      revert\n    tag_54:\n      pop\n      tag_55\n      tag_56\n      jump\t// in\n    tag_55:\n      mload(0x40)\n      tag_57\n      swap2\n      swap1\n      tag_26\n      jump\t// in\n    tag_57:\n      mload(0x40)\n      dup1\n      swap2\n      sub\n      swap1\n      return\n        /* \"CrowdFunding .sol\":235:253  uint public target */\n    tag_13:\n      callvalue\n      dup1\n      iszero\n      tag_58\n      jumpi\n      0x00\n      dup1\n      revert\n    tag_58:\n      pop\n      tag_59\n      tag_60\n      jump\t// in\n    tag_59:\n      mload(0x40)\n      tag_61\n      swap2\n      swap1\n      tag_26\n      jump\t// in\n    tag_61:\n      mload(0x40)\n      dup1\n      swap2\n      sub\n      swap1\n      return\n        /* \"CrowdFunding .sol\":678:1112  function sendEth() public payable {... */\n    tag_16:\n        /* \"CrowdFunding .sol\":749:757  deadline */\n      sload(0x03)\n        /* \"CrowdFunding .sol\":731:746  block.timestamp */\n      timestamp\n        /* \"CrowdFunding .sol\":731:757  block.timestamp < deadline */\n      lt\n        /* \"CrowdFunding .sol\":723:781  require(block.timestamp < deadline, \"Deadline has passed\") */\n      tag_63\n      jumpi\n      mload(0x40)\n      0x08c379a000000000000000000000000000000000000000000000000000000000\n      dup2\n      mstore\n      0x04\n      add\n      tag_64\n      swap1\n      tag_65\n      jump\t// in\n    tag_64:\n      mload(0x40)\n      dup1\n      swap2\n      sub\n      swap1\n      revert\n    tag_63:\n        /* \"CrowdFunding .sol\":813:832  minimumContribution */\n      sload(0x02)\n        /* \"CrowdFunding .sol\":800:809  msg.value */\n      callvalue\n        /* \"CrowdFunding .sol\":800:832  msg.value >= minimumContribution */\n      lt\n      iszero\n        /* \"CrowdFunding .sol\":792:865  require(msg.value >= minimumContribution, \"Minimum contribution not met\") */\n      tag_66\n      jumpi\n      mload(0x40)\n      0x08c379a000000000000000000000000000000000000000000000000000000000\n      dup2\n      mstore\n      0x04\n      add\n      tag_67\n      swap1\n      tag_68\n      jump\t// in\n    tag_67:\n      mload(0x40)\n      dup1\n      swap2\n      sub\n      swap1\n      revert\n    tag_66:\n        /* \"CrowdFunding .sol\":910:911  0 */\n      0x00\n        /* \"CrowdFunding .sol\":882:894  contributors */\n      dup1\n        /* \"CrowdFunding .sol\":882:906  contributors[msg.sender] */\n      0x00\n        /* \"CrowdFunding .sol\":895:905  msg.sender */\n      caller\n        /* \"CrowdFunding .sol\":882:906  contributors[msg.sender] */\n      0xffffffffffffffffffffffffffffffffffffffff\n      and\n      0xffffffffffffffffffffffffffffffffffffffff\n      and\n      dup2\n      mstore\n      0x20\n      add\n      swap1\n      dup2\n      mstore\n      0x20\n      add\n      0x00\n      keccak256\n      sload\n        /* \"CrowdFunding .sol\":882:911  contributors[msg.sender] == 0 */\n      sub\n        /* \"CrowdFunding .sol\":878:958  if (contributors[msg.sender] == 0) {... */\n      tag_69\n      jumpi\n        /* \"CrowdFunding .sol\":928:944  noOfContributors */\n      0x06\n      0x00\n        /* \"CrowdFunding .sol\":928:946  noOfContributors++ */\n      dup2\n      sload\n      dup1\n      swap3\n      swap2\n      swap1\n      tag_70\n      swap1\n      tag_71\n      jump\t// in\n    tag_70:\n      swap2\n      swap1\n      pop\n      sstore\n      pop\n        /* \"CrowdFunding .sol\":878:958  if (contributors[msg.sender] == 0) {... */\n    tag_69:\n        /* \"CrowdFunding .sol\":998:1007  msg.value */\n      callvalue\n        /* \"CrowdFunding .sol\":970:982  contributors */\n      0x00\n        /* \"CrowdFunding .sol\":970:994  contributors[msg.sender] */\n      dup1\n        /* \"CrowdFunding .sol\":983:993  msg.sender */\n      caller\n        /* \"CrowdFunding .sol\":970:994  contributors[msg.sender] */\n      0xffffffffffffffffffffffffffffffffffffffff\n      and\n      0xffffffffffffffffffffffffffffffffffffffff\n      and\n      dup2\n      mstore\n      0x20\n      add\n      swap1\n      dup2\n      mstore\n      0x20\n      add\n      0x00\n      keccak256\n      0x00\n        /* \"CrowdFunding .sol\":970:1007  contributors[msg.sender] += msg.value */\n      dup3\n      dup3\n      sload\n      tag_72\n      swap2\n      swap1\n      tag_73\n      jump\t// in\n    tag_72:\n      swap3\n      pop\n      pop\n      dup2\n      swap1\n      sstore\n      pop\n        /* \"CrowdFunding .sol\":1034:1043  msg.value */\n      callvalue\n        /* \"CrowdFunding .sol\":1018:1030  raisedAmount */\n      0x05\n      0x00\n        /* \"CrowdFunding .sol\":1018:1043  raisedAmount += msg.value */\n      dup3\n      dup3\n      sload\n      tag_74\n      swap2\n      swap1\n      tag_73\n      jump\t// in\n    tag_74:\n      swap3\n      pop\n      pop\n      dup2\n      swap1\n      sstore\n      pop\n        /* \"CrowdFunding .sol\":1061:1104  ContributionReceived(msg.sender, msg.value) */\n      0x1bb460ccaaf70fbacfec17a376f8acbd278c1405590ffcc8ebe4b88daf4f64ad\n        /* \"CrowdFunding .sol\":1082:1092  msg.sender */\n      caller\n        /* \"CrowdFunding .sol\":1094:1103  msg.value */\n      callvalue\n        /* \"CrowdFunding .sol\":1061:1104  ContributionReceived(msg.sender, msg.value) */\n      mload(0x40)\n      tag_75\n      swap3\n      swap2\n      swap1\n      tag_76\n      jump\t// in\n    tag_75:\n      mload(0x40)\n      dup1\n      swap2\n      sub\n      swap1\n      log1\n        /* \"CrowdFunding .sol\":678:1112  function sendEth() public payable {... */\n      jump\t// out\n        /* \"CrowdFunding .sol\":2058:2396  function terminate() public {... */\n    tag_19:\n        /* \"CrowdFunding .sol\":2115:2122  manager */\n      0x01\n      0x00\n      swap1\n      sload\n      swap1\n      0x0100\n      exp\n      swap1\n      div\n      0xffffffffffffffffffffffffffffffffffffffff\n      and\n        /* \"CrowdFunding .sol\":2101:2122  msg.sender == manager */\n      0xffffffffffffffffffffffffffffffffffffffff\n      and\n        /* \"CrowdFunding .sol\":2101:2111  msg.sender */\n      caller\n        /* \"CrowdFunding .sol\":2101:2122  msg.sender == manager */\n      0xffffffffffffffffffffffffffffffffffffffff\n      and\n      eq\n        /* \"CrowdFunding .sol\":2093:2153  require(msg.sender == manager, \"Only manager can terminate\") */\n      tag_78\n      jumpi\n      mload(0x40)\n      0x08c379a000000000000000000000000000000000000000000000000000000000\n      dup2\n      mstore\n      0x04\n      add\n      tag_79\n      swap1\n      tag_80\n      jump\t// in\n    tag_79:\n      mload(0x40)\n      dup1\n      swap2\n      sub\n      swap1\n      revert\n    tag_78:\n        /* \"CrowdFunding .sol\":2187:2195  deadline */\n      sload(0x03)\n        /* \"CrowdFunding .sol\":2168:2183  block.timestamp */\n      timestamp\n        /* \"CrowdFunding .sol\":2168:2195  block.timestamp >= deadline */\n      lt\n      iszero\n        /* \"CrowdFunding .sol\":2160:2223  require(block.timestamp >= deadline, \"Deadline not yet passed\") */\n      tag_81\n      jumpi\n      mload(0x40)\n      0x08c379a000000000000000000000000000000000000000000000000000000000\n      dup2\n      mstore\n      0x04\n      add\n      tag_82\n      swap1\n      tag_83\n      jump\t// in\n    tag_82:\n      mload(0x40)\n      dup1\n      swap2\n      sub\n      swap1\n      revert\n    tag_81:\n        /* \"CrowdFunding .sol\":2253:2259  target */\n      sload(0x04)\n        /* \"CrowdFunding .sol\":2238:2250  raisedAmount */\n      sload(0x05)\n        /* \"CrowdFunding .sol\":2238:2259  raisedAmount < target */\n      lt\n        /* \"CrowdFunding .sol\":2230:2308  require(raisedAmount < target, \"Funding target was reached, cannot terminate\") */\n      tag_84\n      jumpi\n      mload(0x40)\n      0x08c379a000000000000000000000000000000000000000000000000000000000\n      dup2\n      mstore\n      0x04\n      add\n      tag_85\n      swap1\n      tag_86\n      jump\t// in\n    tag_85:\n      mload(0x40)\n      dup1\n      swap2\n      sub\n      swap1\n      revert\n    tag_84:\n        /* \"CrowdFunding .sol\":2317:2328  uint amount */\n      0x00\n        /* \"CrowdFunding .sol\":2331:2352  address(this).balance */\n      selfbalance\n        /* \"CrowdFunding .sol\":2317:2352  uint amount = address(this).balance */\n      swap1\n      pop\n        /* \"CrowdFunding .sol\":2367:2374  manager */\n      0x01\n      0x00\n      swap1\n      sload\n      swap1\n      0x0100\n      exp\n      swap1\n      div\n      0xffffffffffffffffffffffffffffffffffffffff\n      and\n        /* \"CrowdFunding .sol\":2359:2384  payable(manager).transfer */\n      0xffffffffffffffffffffffffffffffffffffffff\n      and\n        /* \"CrowdFunding .sol\":2359:2392  payable(manager).transfer(amount) */\n      0x08fc\n        /* \"CrowdFunding .sol\":2385:2391  amount */\n      dup3\n        /* \"CrowdFunding .sol\":2359:2392  payable(manager).transfer(amount) */\n      swap1\n      dup2\n      iszero\n      mul\n      swap1\n      mload(0x40)\n      0x00\n      mload(0x40)\n      dup1\n      dup4\n      sub\n      dup2\n      dup6\n      dup9\n      dup9\n      call\n      swap4\n      pop\n      pop\n      pop\n      pop\n      iszero\n      dup1\n      iszero\n      tag_88\n      jumpi\n      returndatasize\n      0x00\n      dup1\n      returndatacopy\n      revert(0x00, returndatasize)\n    tag_88:\n      pop\n        /* \"CrowdFunding .sol\":2086:2396  {... */\n      pop\n        /* \"CrowdFunding .sol\":2058:2396  function terminate() public {... */\n      jump\t// out\n        /* \"CrowdFunding .sol\":90:134  mapping(address => uint) public contributors */\n    tag_24:\n      mstore(0x20, 0x00)\n      dup1\n      0x00\n      mstore\n      keccak256(0x00, 0x40)\n      0x00\n      swap2\n      pop\n      swap1\n      pop\n      sload\n      dup2\n      jump\t// out\n        /* \"CrowdFunding .sol\":1231:1628  function withdrawFunds() public {... */\n    tag_29:\n        /* \"CrowdFunding .sol\":1296:1303  manager */\n      0x01\n      0x00\n      swap1\n      sload\n      swap1\n      0x0100\n      exp\n      swap1\n      div\n      0xffffffffffffffffffffffffffffffffffffffff\n      and\n        /* \"CrowdFunding .sol\":1282:1303  msg.sender == manager */\n      0xffffffffffffffffffffffffffffffffffffffff\n      and\n        /* \"CrowdFunding .sol\":1282:1292  msg.sender */\n      caller\n        /* \"CrowdFunding .sol\":1282:1303  msg.sender == manager */\n      0xffffffffffffffffffffffffffffffffffffffff\n      and\n      eq\n        /* \"CrowdFunding .sol\":1274:1333  require(msg.sender == manager, \"Only manager can withdraw\") */\n      tag_90\n      jumpi\n      mload(0x40)\n      0x08c379a000000000000000000000000000000000000000000000000000000000\n      dup2\n      mstore\n      0x04\n      add\n      tag_91\n      swap1\n      tag_92\n      jump\t// in\n    tag_91:\n      mload(0x40)\n      dup1\n      swap2\n      sub\n      swap1\n      revert\n    tag_90:\n        /* \"CrowdFunding .sol\":1371:1379  deadline */\n      sload(0x03)\n        /* \"CrowdFunding .sol\":1352:1367  block.timestamp */\n      timestamp\n        /* \"CrowdFunding .sol\":1352:1379  block.timestamp >= deadline */\n      lt\n      iszero\n        /* \"CrowdFunding .sol\":1344:1407  require(block.timestamp >= deadline, \"Deadline not yet passed\") */\n      tag_93\n      jumpi\n      mload(0x40)\n      0x08c379a000000000000000000000000000000000000000000000000000000000\n      dup2\n      mstore\n      0x04\n      add\n      tag_94\n      swap1\n      tag_83\n      jump\t// in\n    tag_94:\n      mload(0x40)\n      dup1\n      swap2\n      sub\n      swap1\n      revert\n    tag_93:\n        /* \"CrowdFunding .sol\":1442:1448  target */\n      sload(0x04)\n        /* \"CrowdFunding .sol\":1426:1438  raisedAmount */\n      sload(0x05)\n        /* \"CrowdFunding .sol\":1426:1448  raisedAmount >= target */\n      lt\n      iszero\n        /* \"CrowdFunding .sol\":1418:1479  require(raisedAmount >= target, \"Funding target not reached\") */\n      tag_95\n      jumpi\n      mload(0x40)\n      0x08c379a000000000000000000000000000000000000000000000000000000000\n      dup2\n      mstore\n      0x04\n      add\n      tag_96\n      swap1\n      tag_97\n      jump\t// in\n    tag_96:\n      mload(0x40)\n      dup1\n      swap2\n      sub\n      swap1\n      revert\n    tag_95:\n        /* \"CrowdFunding .sol\":1492:1503  uint amount */\n      0x00\n        /* \"CrowdFunding .sol\":1506:1527  address(this).balance */\n      selfbalance\n        /* \"CrowdFunding .sol\":1492:1527  uint amount = address(this).balance */\n      swap1\n      pop\n        /* \"CrowdFunding .sol\":1546:1553  manager */\n      0x01\n      0x00\n      swap1\n      sload\n      swap1\n      0x0100\n      exp\n      swap1\n      div\n      0xffffffffffffffffffffffffffffffffffffffff\n      and\n        /* \"CrowdFunding .sol\":1538:1563  payable(manager).transfer */\n      0xffffffffffffffffffffffffffffffffffffffff\n      and\n        /* \"CrowdFunding .sol\":1538:1571  payable(manager).transfer(amount) */\n      0x08fc\n        /* \"CrowdFunding .sol\":1564:1570  amount */\n      dup3\n        /* \"CrowdFunding .sol\":1538:1571  payable(manager).transfer(amount) */\n      swap1\n      dup2\n      iszero\n      mul\n      swap1\n      mload(0x40)\n      0x00\n      mload(0x40)\n      dup1\n      dup4\n      sub\n      dup2\n      dup6\n      dup9\n      dup9\n      call\n      swap4\n      pop\n      pop\n      pop\n      pop\n      iszero\n      dup1\n      iszero\n      tag_99\n      jumpi\n      returndatasize\n      0x00\n      dup1\n      returndatacopy\n      revert(0x00, returndatasize)\n    tag_99:\n      pop\n        /* \"CrowdFunding .sol\":1589:1620  FundsWithdrawn(manager, amount) */\n      0xeaff4b37086828766ad3268786972c0cd24259d4c87a80f9d3963a3c3d999b0d\n        /* \"CrowdFunding .sol\":1604:1611  manager */\n      0x01\n      0x00\n      swap1\n      sload\n      swap1\n      0x0100\n      exp\n      swap1\n      div\n      0xffffffffffffffffffffffffffffffffffffffff\n      and\n        /* \"CrowdFunding .sol\":1613:1619  amount */\n      dup3\n        /* \"CrowdFunding .sol\":1589:1620  FundsWithdrawn(manager, amount) */\n      mload(0x40)\n      tag_100\n      swap3\n      swap2\n      swap1\n      tag_76\n      jump\t// in\n    tag_100:\n      mload(0x40)\n      dup1\n      swap2\n      sub\n      swap1\n      log1\n        /* \"CrowdFunding .sol\":1263:1628  {... */\n      pop\n        /* \"CrowdFunding .sol\":1231:1628  function withdrawFunds() public {... */\n      jump\t// out\n        /* \"CrowdFunding .sol\":208:228  uint public deadline */\n    tag_32:\n      sload(0x03)\n      dup2\n      jump\t// out\n        /* \"CrowdFunding .sol\":141:163  address public manager */\n    tag_36:\n      0x01\n      0x00\n      swap1\n      sload\n      swap1\n      0x0100\n      exp\n      swap1\n      div\n      0xffffffffffffffffffffffffffffffffffffffff\n      and\n      dup2\n      jump\t// out\n        /* \"CrowdFunding .sol\":291:319  uint public noOfContributors */\n    tag_41:\n      sload(0x06)\n      dup2\n      jump\t// out\n        /* \"CrowdFunding .sol\":1636:2050  function refund() public {... */\n    tag_45:\n        /* \"CrowdFunding .sol\":1699:1707  deadline */\n      sload(0x03)\n        /* \"CrowdFunding .sol\":1680:1695  block.timestamp */\n      timestamp\n        /* \"CrowdFunding .sol\":1680:1707  block.timestamp >= deadline */\n      lt\n      iszero\n        /* \"CrowdFunding .sol\":1672:1735  require(block.timestamp >= deadline, \"Deadline not yet passed\") */\n      tag_102\n      jumpi\n      mload(0x40)\n      0x08c379a000000000000000000000000000000000000000000000000000000000\n      dup2\n      mstore\n      0x04\n      add\n      tag_103\n      swap1\n      tag_83\n      jump\t// in\n    tag_103:\n      mload(0x40)\n      dup1\n      swap2\n      sub\n      swap1\n      revert\n    tag_102:\n        /* \"CrowdFunding .sol\":1769:1775  target */\n      sload(0x04)\n        /* \"CrowdFunding .sol\":1754:1766  raisedAmount */\n      sload(0x05)\n        /* \"CrowdFunding .sol\":1754:1775  raisedAmount < target */\n      lt\n        /* \"CrowdFunding .sol\":1746:1818  require(raisedAmount < target, \"Funding target was reached, no refunds\") */\n      tag_104\n      jumpi\n      mload(0x40)\n      0x08c379a000000000000000000000000000000000000000000000000000000000\n      dup2\n      mstore\n      0x04\n      add\n      tag_105\n      swap1\n      tag_106\n      jump\t// in\n    tag_105:\n      mload(0x40)\n      dup1\n      swap2\n      sub\n      swap1\n      revert\n    tag_104:\n        /* \"CrowdFunding .sol\":1831:1853  uint contributedAmount */\n      0x00\n        /* \"CrowdFunding .sol\":1856:1868  contributors */\n      dup1\n        /* \"CrowdFunding .sol\":1856:1880  contributors[msg.sender] */\n      0x00\n        /* \"CrowdFunding .sol\":1869:1879  msg.sender */\n      caller\n        /* \"CrowdFunding .sol\":1856:1880  contributors[msg.sender] */\n      0xffffffffffffffffffffffffffffffffffffffff\n      and\n      0xffffffffffffffffffffffffffffffffffffffff\n      and\n      dup2\n      mstore\n      0x20\n      add\n      swap1\n      dup2\n      mstore\n      0x20\n      add\n      0x00\n      keccak256\n      sload\n        /* \"CrowdFunding .sol\":1831:1880  uint contributedAmount = contributors[msg.sender] */\n      swap1\n      pop\n        /* \"CrowdFunding .sol\":1919:1920  0 */\n      0x00\n        /* \"CrowdFunding .sol\":1899:1916  contributedAmount */\n      dup2\n        /* \"CrowdFunding .sol\":1899:1920  contributedAmount > 0 */\n      gt\n        /* \"CrowdFunding .sol\":1891:1943  require(contributedAmount > 0, \"No funds to refund\") */\n      tag_107\n      jumpi\n      mload(0x40)\n      0x08c379a000000000000000000000000000000000000000000000000000000000\n      dup2\n      mstore\n      0x04\n      add\n      tag_108\n      swap1\n      tag_109\n      jump\t// in\n    tag_108:\n      mload(0x40)\n      dup1\n      swap2\n      sub\n      swap1\n      revert\n    tag_107:\n        /* \"CrowdFunding .sol\":1983:1984  0 */\n      0x00\n        /* \"CrowdFunding .sol\":1956:1968  contributors */\n      dup1\n        /* \"CrowdFunding .sol\":1956:1980  contributors[msg.sender] */\n      0x00\n        /* \"CrowdFunding .sol\":1969:1979  msg.sender */\n      caller\n        /* \"CrowdFunding .sol\":1956:1980  contributors[msg.sender] */\n      0xffffffffffffffffffffffffffffffffffffffff\n      and\n      0xffffffffffffffffffffffffffffffffffffffff\n      and\n      dup2\n      mstore\n      0x20\n      add\n      swap1\n      dup2\n      mstore\n      0x20\n      add\n      0x00\n      keccak256\n        /* \"CrowdFunding .sol\":1956:1984  contributors[msg.sender] = 0 */\n      dup2\n      swap1\n      sstore\n      pop\n        /* \"CrowdFunding .sol\":2003:2013  msg.sender */\n      caller\n        /* \"CrowdFunding .sol\":1995:2023  payable(msg.sender).transfer */\n      0xffffffffffffffffffffffffffffffffffffffff\n      and\n        /* \"CrowdFunding .sol\":1995:2042  payable(msg.sender).transfer(contributedAmount) */\n      0x08fc\n        /* \"CrowdFunding .sol\":2024:2041  contributedAmount */\n      dup3\n        /* \"CrowdFunding .sol\":1995:2042  payable(msg.sender).transfer(contributedAmount) */\n      swap1\n      dup2\n      iszero\n      mul\n      swap1\n      mload(0x40)\n      0x00\n      mload(0x40)\n      dup1\n      dup4\n      sub\n      dup2\n      dup6\n      dup9\n      dup9\n      call\n      swap4\n      pop\n      pop\n      pop\n      pop\n      iszero\n      dup1\n      iszero\n      tag_111\n      jumpi\n      returndatasize\n      0x00\n      dup1\n      returndatacopy\n      revert(0x00, returndatasize)\n    tag_111:\n      pop\n        /* \"CrowdFunding .sol\":1661:2050  {... */\n      pop\n        /* \"CrowdFunding .sol\":1636:2050  function refund() public {... */\n      jump\t// out\n        /* \"CrowdFunding .sol\":1120:1223  function getContractBalance() public view returns(uint) {... */\n    tag_48:\n        /* \"CrowdFunding .sol\":1170:1174  uint */\n      0x00\n        /* \"CrowdFunding .sol\":1194:1215  address(this).balance */\n      selfbalance\n        /* \"CrowdFunding .sol\":1187:1215  return address(this).balance */\n      swap1\n      pop\n        /* \"CrowdFunding .sol\":1120:1223  function getContractBalance() public view returns(uint) {... */\n      swap1\n      jump\t// out\n        /* \"CrowdFunding .sol\":170:201  uint public minimumContribution */\n    tag_52:\n      sload(0x02)\n      dup2\n      jump\t// out\n        /* \"CrowdFunding .sol\":260:284  uint public raisedAmount */\n    tag_56:\n      sload(0x05)\n      dup2\n      jump\t// out\n        /* \"CrowdFunding .sol\":235:253  uint public target */\n    tag_60:\n      sload(0x04)\n      dup2\n      jump\t// out\n        /* \"#utility.yul\":88:205   */\n    tag_114:\n        /* \"#utility.yul\":197:198   */\n      0x00\n        /* \"#utility.yul\":194:195   */\n      dup1\n        /* \"#utility.yul\":187:199   */\n      revert\n        /* \"#utility.yul\":334:460   */\n    tag_116:\n        /* \"#utility.yul\":371:378   */\n      0x00\n        /* \"#utility.yul\":411:453   */\n      0xffffffffffffffffffffffffffffffffffffffff\n        /* \"#utility.yul\":404:409   */\n      dup3\n        /* \"#utility.yul\":400:454   */\n      and\n        /* \"#utility.yul\":389:454   */\n      swap1\n      pop\n        /* \"#utility.yul\":334:460   */\n      swap2\n      swap1\n      pop\n      jump\t// out\n        /* \"#utility.yul\":466:562   */\n    tag_117:\n        /* \"#utility.yul\":503:510   */\n      0x00\n        /* \"#utility.yul\":532:556   */\n      tag_149\n        /* \"#utility.yul\":550:555   */\n      dup3\n        /* \"#utility.yul\":532:556   */\n      tag_116\n      jump\t// in\n    tag_149:\n        /* \"#utility.yul\":521:556   */\n      swap1\n      pop\n        /* \"#utility.yul\":466:562   */\n      swap2\n      swap1\n      pop\n      jump\t// out\n        /* \"#utility.yul\":568:690   */\n    tag_118:\n        /* \"#utility.yul\":641:665   */\n      tag_151\n        /* \"#utility.yul\":659:664   */\n      dup2\n        /* \"#utility.yul\":641:665   */\n      tag_117\n      jump\t// in\n    tag_151:\n        /* \"#utility.yul\":634:639   */\n      dup2\n        /* \"#utility.yul\":631:666   */\n      eq\n        /* \"#utility.yul\":621:684   */\n      tag_152\n      jumpi\n        /* \"#utility.yul\":680:681   */\n      0x00\n        /* \"#utility.yul\":677:678   */\n      dup1\n        /* \"#utility.yul\":670:682   */\n      revert\n        /* \"#utility.yul\":621:684   */\n    tag_152:\n        /* \"#utility.yul\":568:690   */\n      pop\n      jump\t// out\n        /* \"#utility.yul\":696:835   */\n    tag_119:\n        /* \"#utility.yul\":742:747   */\n      0x00\n        /* \"#utility.yul\":780:786   */\n      dup2\n        /* \"#utility.yul\":767:787   */\n      calldataload\n        /* \"#utility.yul\":758:787   */\n      swap1\n      pop\n        /* \"#utility.yul\":796:829   */\n      tag_154\n        /* \"#utility.yul\":823:828   */\n      dup2\n        /* \"#utility.yul\":796:829   */\n      tag_118\n      jump\t// in\n    tag_154:\n        /* \"#utility.yul\":696:835   */\n      swap3\n      swap2\n      pop\n      pop\n      jump\t// out\n        /* \"#utility.yul\":841:1170   */\n    tag_23:\n        /* \"#utility.yul\":900:906   */\n      0x00\n        /* \"#utility.yul\":949:951   */\n      0x20\n        /* \"#utility.yul\":937:946   */\n      dup3\n        /* \"#utility.yul\":928:935   */\n      dup5\n        /* \"#utility.yul\":924:947   */\n      sub\n        /* \"#utility.yul\":920:952   */\n      slt\n        /* \"#utility.yul\":917:1036   */\n      iszero\n      tag_156\n      jumpi\n        /* \"#utility.yul\":955:1034   */\n      tag_157\n      tag_114\n      jump\t// in\n    tag_157:\n        /* \"#utility.yul\":917:1036   */\n    tag_156:\n        /* \"#utility.yul\":1075:1076   */\n      0x00\n        /* \"#utility.yul\":1100:1153   */\n      tag_158\n        /* \"#utility.yul\":1145:1152   */\n      dup5\n        /* \"#utility.yul\":1136:1142   */\n      dup3\n        /* \"#utility.yul\":1125:1134   */\n      dup6\n        /* \"#utility.yul\":1121:1143   */\n      add\n        /* \"#utility.yul\":1100:1153   */\n      tag_119\n      jump\t// in\n    tag_158:\n        /* \"#utility.yul\":1090:1153   */\n      swap2\n      pop\n        /* \"#utility.yul\":1046:1163   */\n      pop\n        /* \"#utility.yul\":841:1170   */\n      swap3\n      swap2\n      pop\n      pop\n      jump\t// out\n        /* \"#utility.yul\":1176:1253   */\n    tag_120:\n        /* \"#utility.yul\":1213:1220   */\n      0x00\n        /* \"#utility.yul\":1242:1247   */\n      dup2\n        /* \"#utility.yul\":1231:1247   */\n      swap1\n      pop\n        /* \"#utility.yul\":1176:1253   */\n      swap2\n      swap1\n      pop\n      jump\t// out\n        /* \"#utility.yul\":1259:1377   */\n    tag_121:\n        /* \"#utility.yul\":1346:1370   */\n      tag_161\n        /* \"#utility.yul\":1364:1369   */\n      dup2\n        /* \"#utility.yul\":1346:1370   */\n      tag_120\n      jump\t// in\n    tag_161:\n        /* \"#utility.yul\":1341:1344   */\n      dup3\n        /* \"#utility.yul\":1334:1371   */\n      mstore\n        /* \"#utility.yul\":1259:1377   */\n      pop\n      pop\n      jump\t// out\n        /* \"#utility.yul\":1383:1605   */\n    tag_26:\n        /* \"#utility.yul\":1476:1480   */\n      0x00\n        /* \"#utility.yul\":1514:1516   */\n      0x20\n        /* \"#utility.yul\":1503:1512   */\n      dup3\n        /* \"#utility.yul\":1499:1517   */\n      add\n        /* \"#utility.yul\":1491:1517   */\n      swap1\n      pop\n        /* \"#utility.yul\":1527:1598   */\n      tag_163\n        /* \"#utility.yul\":1595:1596   */\n      0x00\n        /* \"#utility.yul\":1584:1593   */\n      dup4\n        /* \"#utility.yul\":1580:1597   */\n      add\n        /* \"#utility.yul\":1571:1577   */\n      dup5\n        /* \"#utility.yul\":1527:1598   */\n      tag_121\n      jump\t// in\n    tag_163:\n        /* \"#utility.yul\":1383:1605   */\n      swap3\n      swap2\n      pop\n      pop\n      jump\t// out\n        /* \"#utility.yul\":1611:1729   */\n    tag_122:\n        /* \"#utility.yul\":1698:1722   */\n      tag_165\n        /* \"#utility.yul\":1716:1721   */\n      dup2\n        /* \"#utility.yul\":1698:1722   */\n      tag_117\n      jump\t// in\n    tag_165:\n        /* \"#utility.yul\":1693:1696   */\n      dup3\n        /* \"#utility.yul\":1686:1723   */\n      mstore\n        /* \"#utility.yul\":1611:1729   */\n      pop\n      pop\n      jump\t// out\n        /* \"#utility.yul\":1735:1957   */\n    tag_38:\n        /* \"#utility.yul\":1828:1832   */\n      0x00\n        /* \"#utility.yul\":1866:1868   */\n      0x20\n        /* \"#utility.yul\":1855:1864   */\n      dup3\n        /* \"#utility.yul\":1851:1869   */\n      add\n        /* \"#utility.yul\":1843:1869   */\n      swap1\n      pop\n        /* \"#utility.yul\":1879:1950   */\n      tag_167\n        /* \"#utility.yul\":1947:1948   */\n      0x00\n        /* \"#utility.yul\":1936:1945   */\n      dup4\n        /* \"#utility.yul\":1932:1949   */\n      add\n        /* \"#utility.yul\":1923:1929   */\n      dup5\n        /* \"#utility.yul\":1879:1950   */\n      tag_122\n      jump\t// in\n    tag_167:\n        /* \"#utility.yul\":1735:1957   */\n      swap3\n      swap2\n      pop\n      pop\n      jump\t// out\n        /* \"#utility.yul\":1963:2132   */\n    tag_123:\n        /* \"#utility.yul\":2047:2058   */\n      0x00\n        /* \"#utility.yul\":2081:2087   */\n      dup3\n        /* \"#utility.yul\":2076:2079   */\n      dup3\n        /* \"#utility.yul\":2069:2088   */\n      mstore\n        /* \"#utility.yul\":2121:2125   */\n      0x20\n        /* \"#utility.yul\":2116:2119   */\n      dup3\n        /* \"#utility.yul\":2112:2126   */\n      add\n        /* \"#utility.yul\":2097:2126   */\n      swap1\n      pop\n        /* \"#utility.yul\":1963:2132   */\n      swap3\n      swap2\n      pop\n      pop\n      jump\t// out\n        /* \"#utility.yul\":2138:2307   */\n    tag_124:\n        /* \"#utility.yul\":2278:2299   */\n      0x446561646c696e65206861732070617373656400000000000000000000000000\n        /* \"#utility.yul\":2274:2275   */\n      0x00\n        /* \"#utility.yul\":2266:2272   */\n      dup3\n        /* \"#utility.yul\":2262:2276   */\n      add\n        /* \"#utility.yul\":2255:2300   */\n      mstore\n        /* \"#utility.yul\":2138:2307   */\n      pop\n      jump\t// out\n        /* \"#utility.yul\":2313:2679   */\n    tag_125:\n        /* \"#utility.yul\":2455:2458   */\n      0x00\n        /* \"#utility.yul\":2476:2543   */\n      tag_171\n        /* \"#utility.yul\":2540:2542   */\n      0x13\n        /* \"#utility.yul\":2535:2538   */\n      dup4\n        /* \"#utility.yul\":2476:2543   */\n      tag_123\n      jump\t// in\n    tag_171:\n        /* \"#utility.yul\":2469:2543   */\n      swap2\n      pop\n        /* \"#utility.yul\":2552:2645   */\n      tag_172\n        /* \"#utility.yul\":2641:2644   */\n      dup3\n        /* \"#utility.yul\":2552:2645   */\n      tag_124\n      jump\t// in\n    tag_172:\n        /* \"#utility.yul\":2670:2672   */\n      0x20\n        /* \"#utility.yul\":2665:2668   */\n      dup3\n        /* \"#utility.yul\":2661:2673   */\n      add\n        /* \"#utility.yul\":2654:2673   */\n      swap1\n      pop\n        /* \"#utility.yul\":2313:2679   */\n      swap2\n      swap1\n      pop\n      jump\t// out\n        /* \"#utility.yul\":2685:3104   */\n    tag_65:\n        /* \"#utility.yul\":2851:2855   */\n      0x00\n        /* \"#utility.yul\":2889:2891   */\n      0x20\n        /* \"#utility.yul\":2878:2887   */\n      dup3\n        /* \"#utility.yul\":2874:2892   */\n      add\n        /* \"#utility.yul\":2866:2892   */\n      swap1\n      pop\n        /* \"#utility.yul\":2938:2947   */\n      dup2\n        /* \"#utility.yul\":2932:2936   */\n      dup2\n        /* \"#utility.yul\":2928:2948   */\n      sub\n        /* \"#utility.yul\":2924:2925   */\n      0x00\n        /* \"#utility.yul\":2913:2922   */\n      dup4\n        /* \"#utility.yul\":2909:2926   */\n      add\n        /* \"#utility.yul\":2902:2949   */\n      mstore\n        /* \"#utility.yul\":2966:3097   */\n      tag_174\n        /* \"#utility.yul\":3092:3096   */\n      dup2\n        /* \"#utility.yul\":2966:3097   */\n      tag_125\n      jump\t// in\n    tag_174:\n        /* \"#utility.yul\":2958:3097   */\n      swap1\n      pop\n        /* \"#utility.yul\":2685:3104   */\n      swap2\n      swap1\n      pop\n      jump\t// out\n        /* \"#utility.yul\":3110:3288   */\n    tag_126:\n        /* \"#utility.yul\":3250:3280   */\n      0x4d696e696d756d20636f6e747269627574696f6e206e6f74206d657400000000\n        /* \"#utility.yul\":3246:3247   */\n      0x00\n        /* \"#utility.yul\":3238:3244   */\n      dup3\n        /* \"#utility.yul\":3234:3248   */\n      add\n        /* \"#utility.yul\":3227:3281   */\n      mstore\n        /* \"#utility.yul\":3110:3288   */\n      pop\n      jump\t// out\n        /* \"#utility.yul\":3294:3660   */\n    tag_127:\n        /* \"#utility.yul\":3436:3439   */\n      0x00\n        /* \"#utility.yul\":3457:3524   */\n      tag_177\n        /* \"#utility.yul\":3521:3523   */\n      0x1c\n        /* \"#utility.yul\":3516:3519   */\n      dup4\n        /* \"#utility.yul\":3457:3524   */\n      tag_123\n      jump\t// in\n    tag_177:\n        /* \"#utility.yul\":3450:3524   */\n      swap2\n      pop\n        /* \"#utility.yul\":3533:3626   */\n      tag_178\n        /* \"#utility.yul\":3622:3625   */\n      dup3\n        /* \"#utility.yul\":3533:3626   */\n      tag_126\n      jump\t// in\n    tag_178:\n        /* \"#utility.yul\":3651:3653   */\n      0x20\n        /* \"#utility.yul\":3646:3649   */\n      dup3\n        /* \"#utility.yul\":3642:3654   */\n      add\n        /* \"#utility.yul\":3635:3654   */\n      swap1\n      pop\n        /* \"#utility.yul\":3294:3660   */\n      swap2\n      swap1\n      pop\n      jump\t// out\n        /* \"#utility.yul\":3666:4085   */\n    tag_68:\n        /* \"#utility.yul\":3832:3836   */\n      0x00\n        /* \"#utility.yul\":3870:3872   */\n      0x20\n        /* \"#utility.yul\":3859:3868   */\n      dup3\n        /* \"#utility.yul\":3855:3873   */\n      add\n        /* \"#utility.yul\":3847:3873   */\n      swap1\n      pop\n        /* \"#utility.yul\":3919:3928   */\n      dup2\n        /* \"#utility.yul\":3913:3917   */\n      dup2\n        /* \"#utility.yul\":3909:3929   */\n      sub\n        /* \"#utility.yul\":3905:3906   */\n      0x00\n        /* \"#utility.yul\":3894:3903   */\n      dup4\n        /* \"#utility.yul\":3890:3907   */\n      add\n        /* \"#utility.yul\":3883:3930   */\n      mstore\n        /* \"#utility.yul\":3947:4078   */\n      tag_180\n        /* \"#utility.yul\":4073:4077   */\n      dup2\n        /* \"#utility.yul\":3947:4078   */\n      tag_127\n      jump\t// in\n    tag_180:\n        /* \"#utility.yul\":3939:4078   */\n      swap1\n      pop\n        /* \"#utility.yul\":3666:4085   */\n      swap2\n      swap1\n      pop\n      jump\t// out\n        /* \"#utility.yul\":4091:4271   */\n    tag_128:\n        /* \"#utility.yul\":4139:4216   */\n      0x4e487b7100000000000000000000000000000000000000000000000000000000\n        /* \"#utility.yul\":4136:4137   */\n      0x00\n        /* \"#utility.yul\":4129:4217   */\n      mstore\n        /* \"#utility.yul\":4236:4240   */\n      0x11\n        /* \"#utility.yul\":4233:4234   */\n      0x04\n        /* \"#utility.yul\":4226:4241   */\n      mstore\n        /* \"#utility.yul\":4260:4264   */\n      0x24\n        /* \"#utility.yul\":4257:4258   */\n      0x00\n        /* \"#utility.yul\":4250:4265   */\n      revert\n        /* \"#utility.yul\":4277:4510   */\n    tag_71:\n        /* \"#utility.yul\":4316:4319   */\n      0x00\n        /* \"#utility.yul\":4339:4363   */\n      tag_183\n        /* \"#utility.yul\":4357:4362   */\n      dup3\n        /* \"#utility.yul\":4339:4363   */\n      tag_120\n      jump\t// in\n    tag_183:\n        /* \"#utility.yul\":4330:4363   */\n      swap2\n      pop\n        /* \"#utility.yul\":4385:4451   */\n      0xffffffffffffffffffffffffffffffffffffffffffffffffffffffffffffffff\n        /* \"#utility.yul\":4378:4383   */\n      dup3\n        /* \"#utility.yul\":4375:4452   */\n      sub\n        /* \"#utility.yul\":4372:4475   */\n      tag_184\n      jumpi\n        /* \"#utility.yul\":4455:4473   */\n      tag_185\n      tag_128\n      jump\t// in\n    tag_185:\n        /* \"#utility.yul\":4372:4475   */\n    tag_184:\n        /* \"#utility.yul\":4502:4503   */\n      0x01\n        /* \"#utility.yul\":4495:4500   */\n      dup3\n        /* \"#utility.yul\":4491:4504   */\n      add\n        /* \"#utility.yul\":4484:4504   */\n      swap1\n      pop\n        /* \"#utility.yul\":4277:4510   */\n      swap2\n      swap1\n      pop\n      jump\t// out\n        /* \"#utility.yul\":4516:4707   */\n    tag_73:\n        /* \"#utility.yul\":4556:4559   */\n      0x00\n        /* \"#utility.yul\":4575:4595   */\n      tag_187\n        /* \"#utility.yul\":4593:4594   */\n      dup3\n        /* \"#utility.yul\":4575:4595   */\n      tag_120\n      jump\t// in\n    tag_187:\n        /* \"#utility.yul\":4570:4595   */\n      swap2\n      pop\n        /* \"#utility.yul\":4609:4629   */\n      tag_188\n        /* \"#utility.yul\":4627:4628   */\n      dup4\n        /* \"#utility.yul\":4609:4629   */\n      tag_120\n      jump\t// in\n    tag_188:\n        /* \"#utility.yul\":4604:4629   */\n      swap3\n      pop\n        /* \"#utility.yul\":4652:4653   */\n      dup3\n        /* \"#utility.yul\":4649:4650   */\n      dup3\n        /* \"#utility.yul\":4645:4654   */\n      add\n        /* \"#utility.yul\":4638:4654   */\n      swap1\n      pop\n        /* \"#utility.yul\":4673:4676   */\n      dup1\n        /* \"#utility.yul\":4670:4671   */\n      dup3\n        /* \"#utility.yul\":4667:4677   */\n      gt\n        /* \"#utility.yul\":4664:4700   */\n      iszero\n      tag_189\n      jumpi\n        /* \"#utility.yul\":4680:4698   */\n      tag_190\n      tag_128\n      jump\t// in\n    tag_190:\n        /* \"#utility.yul\":4664:4700   */\n    tag_189:\n        /* \"#utility.yul\":4516:4707   */\n      swap3\n      swap2\n      pop\n      pop\n      jump\t// out\n        /* \"#utility.yul\":4713:5045   */\n    tag_76:\n        /* \"#utility.yul\":4834:4838   */\n      0x00\n        /* \"#utility.yul\":4872:4874   */\n      0x40\n        /* \"#utility.yul\":4861:4870   */\n      dup3\n        /* \"#utility.yul\":4857:4875   */\n      add\n        /* \"#utility.yul\":4849:4875   */\n      swap1\n      pop\n        /* \"#utility.yul\":4885:4956   */\n      tag_192\n        /* \"#utility.yul\":4953:4954   */\n      0x00\n        /* \"#utility.yul\":4942:4951   */\n      dup4\n        /* \"#utility.yul\":4938:4955   */\n      add\n        /* \"#utility.yul\":4929:4935   */\n      dup6\n        /* \"#utility.yul\":4885:4956   */\n      tag_122\n      jump\t// in\n    tag_192:\n        /* \"#utility.yul\":4966:5038   */\n      tag_193\n        /* \"#utility.yul\":5034:5036   */\n      0x20\n        /* \"#utility.yul\":5023:5032   */\n      dup4\n        /* \"#utility.yul\":5019:5037   */\n      add\n        /* \"#utility.yul\":5010:5016   */\n      dup5\n        /* \"#utility.yul\":4966:5038   */\n      tag_121\n      jump\t// in\n    tag_193:\n        /* \"#utility.yul\":4713:5045   */\n      swap4\n      swap3\n      pop\n      pop\n      pop\n      jump\t// out\n        /* \"#utility.yul\":5051:5227   */\n    tag_129:\n        /* \"#utility.yul\":5191:5219   */\n      0x4f6e6c79206d616e616765722063616e207465726d696e617465000000000000\n        /* \"#utility.yul\":5187:5188   */\n      0x00\n        /* \"#utility.yul\":5179:5185   */\n      dup3\n        /* \"#utility.yul\":5175:5189   */\n      add\n        /* \"#utility.yul\":5168:5220   */\n      mstore\n        /* \"#utility.yul\":5051:5227   */\n      pop\n      jump\t// out\n        /* \"#utility.yul\":5233:5599   */\n    tag_130:\n        /* \"#utility.yul\":5375:5378   */\n      0x00\n        /* \"#utility.yul\":5396:5463   */\n      tag_196\n        /* \"#utility.yul\":5460:5462   */\n      0x1a\n        /* \"#utility.yul\":5455:5458   */\n      dup4\n        /* \"#utility.yul\":5396:5463   */\n      tag_123\n      jump\t// in\n    tag_196:\n        /* \"#utility.yul\":5389:5463   */\n      swap2\n      pop\n        /* \"#utility.yul\":5472:5565   */\n      tag_197\n        /* \"#utility.yul\":5561:5564   */\n      dup3\n        /* \"#utility.yul\":5472:5565   */\n      tag_129\n      jump\t// in\n    tag_197:\n        /* \"#utility.yul\":5590:5592   */\n      0x20\n        /* \"#utility.yul\":5585:5588   */\n      dup3\n        /* \"#utility.yul\":5581:5593   */\n      add\n        /* \"#utility.yul\":5574:5593   */\n      swap1\n      pop\n        /* \"#utility.yul\":5233:5599   */\n      swap2\n      swap1\n      pop\n      jump\t// out\n        /* \"#utility.yul\":5605:6024   */\n    tag_80:\n        /* \"#utility.yul\":5771:5775   */\n      0x00\n        /* \"#utility.yul\":5809:5811   */\n      0x20\n        /* \"#utility.yul\":5798:5807   */\n      dup3\n        /* \"#utility.yul\":5794:5812   */\n      add\n        /* \"#utility.yul\":5786:5812   */\n      swap1\n      pop\n        /* \"#utility.yul\":5858:5867   */\n      dup2\n        /* \"#utility.yul\":5852:5856   */\n      dup2\n        /* \"#utility.yul\":5848:5868   */\n      sub\n        /* \"#utility.yul\":5844:5845   */\n      0x00\n        /* \"#utility.yul\":5833:5842   */\n      dup4\n        /* \"#utility.yul\":5829:5846   */\n      add\n        /* \"#utility.yul\":5822:5869   */\n      mstore\n        /* \"#utility.yul\":5886:6017   */\n      tag_199\n        /* \"#utility.yul\":6012:6016   */\n      dup2\n        /* \"#utility.yul\":5886:6017   */\n      tag_130\n      jump\t// in\n    tag_199:\n        /* \"#utility.yul\":5878:6017   */\n      swap1\n      pop\n        /* \"#utility.yul\":5605:6024   */\n      swap2\n      swap1\n      pop\n      jump\t// out\n        /* \"#utility.yul\":6030:6203   */\n    tag_131:\n        /* \"#utility.yul\":6170:6195   */\n      0x446561646c696e65206e6f742079657420706173736564000000000000000000\n        /* \"#utility.yul\":6166:6167   */\n      0x00\n        /* \"#utility.yul\":6158:6164   */\n      dup3\n        /* \"#utility.yul\":6154:6168   */\n      add\n        /* \"#utility.yul\":6147:6196   */\n      mstore\n        /* \"#utility.yul\":6030:6203   */\n      pop\n      jump\t// out\n        /* \"#utility.yul\":6209:6575   */\n    tag_132:\n        /* \"#utility.yul\":6351:6354   */\n      0x00\n        /* \"#utility.yul\":6372:6439   */\n      tag_202\n        /* \"#utility.yul\":6436:6438   */\n      0x17\n        /* \"#utility.yul\":6431:6434   */\n      dup4\n        /* \"#utility.yul\":6372:6439   */\n      tag_123\n      jump\t// in\n    tag_202:\n        /* \"#utility.yul\":6365:6439   */\n      swap2\n      pop\n        /* \"#utility.yul\":6448:6541   */\n      tag_203\n        /* \"#utility.yul\":6537:6540   */\n      dup3\n        /* \"#utility.yul\":6448:6541   */\n      tag_131\n      jump\t// in\n    tag_203:\n        /* \"#utility.yul\":6566:6568   */\n      0x20\n        /* \"#utility.yul\":6561:6564   */\n      dup3\n        /* \"#utility.yul\":6557:6569   */\n      add\n        /* \"#utility.yul\":6550:6569   */\n      swap1\n      pop\n        /* \"#utility.yul\":6209:6575   */\n      swap2\n      swap1\n      pop\n      jump\t// out\n        /* \"#utility.yul\":6581:7000   */\n    tag_83:\n        /* \"#utility.yul\":6747:6751   */\n      0x00\n        /* \"#utility.yul\":6785:6787   */\n      0x20\n        /* \"#utility.yul\":6774:6783   */\n      dup3\n        /* \"#utility.yul\":6770:6788   */\n      add\n        /* \"#utility.yul\":6762:6788   */\n      swap1\n      pop\n        /* \"#utility.yul\":6834:6843   */\n      dup2\n        /* \"#utility.yul\":6828:6832   */\n      dup2\n        /* \"#utility.yul\":6824:6844   */\n      sub\n        /* \"#utility.yul\":6820:6821   */\n      0x00\n        /* \"#utility.yul\":6809:6818   */\n      dup4\n        /* \"#utility.yul\":6805:6822   */\n      add\n        /* \"#utility.yul\":6798:6845   */\n      mstore\n        /* \"#utility.yul\":6862:6993   */\n      tag_205\n        /* \"#utility.yul\":6988:6992   */\n      dup2\n        /* \"#utility.yul\":6862:6993   */\n      tag_132\n      jump\t// in\n    tag_205:\n        /* \"#utility.yul\":6854:6993   */\n      swap1\n      pop\n        /* \"#utility.yul\":6581:7000   */\n      swap2\n      swap1\n      pop\n      jump\t// out\n        /* \"#utility.yul\":7006:7237   */\n    tag_133:\n        /* \"#utility.yul\":7146:7180   */\n      0x46756e64696e67207461726765742077617320726561636865642c2063616e6e\n        /* \"#utility.yul\":7142:7143   */\n      0x00\n        /* \"#utility.yul\":7134:7140   */\n      dup3\n        /* \"#utility.yul\":7130:7144   */\n      add\n        /* \"#utility.yul\":7123:7181   */\n      mstore\n        /* \"#utility.yul\":7215:7229   */\n      0x6f74207465726d696e6174650000000000000000000000000000000000000000\n        /* \"#utility.yul\":7210:7212   */\n      0x20\n        /* \"#utility.yul\":7202:7208   */\n      dup3\n        /* \"#utility.yul\":7198:7213   */\n      add\n        /* \"#utility.yul\":7191:7230   */\n      mstore\n        /* \"#utility.yul\":7006:7237   */\n      pop\n      jump\t// out\n        /* \"#utility.yul\":7243:7609   */\n    tag_134:\n        /* \"#utility.yul\":7385:7388   */\n      0x00\n        /* \"#utility.yul\":7406:7473   */\n      tag_208\n        /* \"#utility.yul\":7470:7472   */\n      0x2c\n        /* \"#utility.yul\":7465:7468   */\n      dup4\n        /* \"#utility.yul\":7406:7473   */\n      tag_123\n      jump\t// in\n    tag_208:\n        /* \"#utility.yul\":7399:7473   */\n      swap2\n      pop\n        /* \"#utility.yul\":7482:7575   */\n      tag_209\n        /* \"#utility.yul\":7571:7574   */\n      dup3\n        /* \"#utility.yul\":7482:7575   */\n      tag_133\n      jump\t// in\n    tag_209:\n        /* \"#utility.yul\":7600:7602   */\n      0x40\n        /* \"#utility.yul\":7595:7598   */\n      dup3\n        /* \"#utility.yul\":7591:7603   */\n      add\n        /* \"#utility.yul\":7584:7603   */\n      swap1\n      pop\n        /* \"#utility.yul\":7243:7609   */\n      swap2\n      swap1\n      pop\n      jump\t// out\n        /* \"#utility.yul\":7615:8034   */\n    tag_86:\n        /* \"#utility.yul\":7781:7785   */\n      0x00\n        /* \"#utility.yul\":7819:7821   */\n      0x20\n        /* \"#utility.yul\":7808:7817   */\n      dup3\n        /* \"#utility.yul\":7804:7822   */\n      add\n        /* \"#utility.yul\":7796:7822   */\n      swap1\n      pop\n        /* \"#utility.yul\":7868:7877   */\n      dup2\n        /* \"#utility.yul\":7862:7866   */\n      dup2\n        /* \"#utility.yul\":7858:7878   */\n      sub\n        /* \"#utility.yul\":7854:7855   */\n      0x00\n        /* \"#utility.yul\":7843:7852   */\n      dup4\n        /* \"#utility.yul\":7839:7856   */\n      add\n        /* \"#utility.yul\":7832:7879   */\n      mstore\n        /* \"#utility.yul\":7896:8027   */\n      tag_211\n        /* \"#utility.yul\":8022:8026   */\n      dup2\n        /* \"#utility.yul\":7896:8027   */\n      tag_134\n      jump\t// in\n    tag_211:\n        /* \"#utility.yul\":7888:8027   */\n      swap1\n      pop\n        /* \"#utility.yul\":7615:8034   */\n      swap2\n      swap1\n      pop\n      jump\t// out\n        /* \"#utility.yul\":8040:8215   */\n    tag_135:\n        /* \"#utility.yul\":8180:8207   */\n      0x4f6e6c79206d616e616765722063616e20776974686472617700000000000000\n        /* \"#utility.yul\":8176:8177   */\n      0x00\n        /* \"#utility.yul\":8168:8174   */\n      dup3\n        /* \"#utility.yul\":8164:8178   */\n      add\n        /* \"#utility.yul\":8157:8208   */\n      mstore\n        /* \"#utility.yul\":8040:8215   */\n      pop\n      jump\t// out\n        /* \"#utility.yul\":8221:8587   */\n    tag_136:\n        /* \"#utility.yul\":8363:8366   */\n      0x00\n        /* \"#utility.yul\":8384:8451   */\n      tag_214\n        /* \"#utility.yul\":8448:8450   */\n      0x19\n        /* \"#utility.yul\":8443:8446   */\n      dup4\n        /* \"#utility.yul\":8384:8451   */\n      tag_123\n      jump\t// in\n    tag_214:\n        /* \"#utility.yul\":8377:8451   */\n      swap2\n      pop\n        /* \"#utility.yul\":8460:8553   */\n      tag_215\n        /* \"#utility.yul\":8549:8552   */\n      dup3\n        /* \"#utility.yul\":8460:8553   */\n      tag_135\n      jump\t// in\n    tag_215:\n        /* \"#utility.yul\":8578:8580   */\n      0x20\n        /* \"#utility.yul\":8573:8576   */\n      dup3\n        /* \"#utility.yul\":8569:8581   */\n      add\n        /* \"#utility.yul\":8562:8581   */\n      swap1\n      pop\n        /* \"#utility.yul\":8221:8587   */\n      swap2\n      swap1\n      pop\n      jump\t// out\n        /* \"#utility.yul\":8593:9012   */\n    tag_92:\n        /* \"#utility.yul\":8759:8763   */\n      0x00\n        /* \"#utility.yul\":8797:8799   */\n      0x20\n        /* \"#utility.yul\":8786:8795   */\n      dup3\n        /* \"#utility.yul\":8782:8800   */\n      add\n        /* \"#utility.yul\":8774:8800   */\n      swap1\n      pop\n        /* \"#utility.yul\":8846:8855   */\n      dup2\n        /* \"#utility.yul\":8840:8844   */\n      dup2\n        /* \"#utility.yul\":8836:8856   */\n      sub\n        /* \"#utility.yul\":8832:8833   */\n      0x00\n        /* \"#utility.yul\":8821:8830   */\n      dup4\n        /* \"#utility.yul\":8817:8834   */\n      add\n        /* \"#utility.yul\":8810:8857   */\n      mstore\n        /* \"#utility.yul\":8874:9005   */\n      tag_217\n        /* \"#utility.yul\":9000:9004   */\n      dup2\n        /* \"#utility.yul\":8874:9005   */\n      tag_136\n      jump\t// in\n    tag_217:\n        /* \"#utility.yul\":8866:9005   */\n      swap1\n      pop\n        /* \"#utility.yul\":8593:9012   */\n      swap2\n      swap1\n      pop\n      jump\t// out\n        /* \"#utility.yul\":9018:9194   */\n    tag_137:\n        /* \"#utility.yul\":9158:9186   */\n      0x46756e64696e6720746172676574206e6f742072656163686564000000000000\n        /* \"#utility.yul\":9154:9155   */\n      0x00\n        /* \"#utility.yul\":9146:9152   */\n      dup3\n        /* \"#utility.yul\":9142:9156   */\n      add\n        /* \"#utility.yul\":9135:9187   */\n      mstore\n        /* \"#utility.yul\":9018:9194   */\n      pop\n      jump\t// out\n        /* \"#utility.yul\":9200:9566   */\n    tag_138:\n        /* \"#utility.yul\":9342:9345   */\n      0x00\n        /* \"#utility.yul\":9363:9430   */\n      tag_220\n        /* \"#utility.yul\":9427:9429   */\n      0x1a\n        /* \"#utility.yul\":9422:9425   */\n      dup4\n        /* \"#utility.yul\":9363:9430   */\n      tag_123\n      jump\t// in\n    tag_220:\n        /* \"#utility.yul\":9356:9430   */\n      swap2\n      pop\n        /* \"#utility.yul\":9439:9532   */\n      tag_221\n        /* \"#utility.yul\":9528:9531   */\n      dup3\n        /* \"#utility.yul\":9439:9532   */\n      tag_137\n      jump\t// in\n    tag_221:\n        /* \"#utility.yul\":9557:9559   */\n      0x20\n        /* \"#utility.yul\":9552:9555   */\n      dup3\n        /* \"#utility.yul\":9548:9560   */\n      add\n        /* \"#utility.yul\":9541:9560   */\n      swap1\n      pop\n        /* \"#utility.yul\":9200:9566   */\n      swap2\n      swap1\n      pop\n      jump\t// out\n        /* \"#utility.yul\":9572:9991   */\n    tag_97:\n        /* \"#utility.yul\":9738:9742   */\n      0x00\n        /* \"#utility.yul\":9776:9778   */\n      0x20\n        /* \"#utility.yul\":9765:9774   */\n      dup3\n        /* \"#utility.yul\":9761:9779   */\n      add\n        /* \"#utility.yul\":9753:9779   */\n      swap1\n      pop\n        /* \"#utility.yul\":9825:9834   */\n      dup2\n        /* \"#utility.yul\":9819:9823   */\n      dup2\n        /* \"#utility.yul\":9815:9835   */\n      sub\n        /* \"#utility.yul\":9811:9812   */\n      0x00\n        /* \"#utility.yul\":9800:9809   */\n      dup4\n        /* \"#utility.yul\":9796:9813   */\n      add\n        /* \"#utility.yul\":9789:9836   */\n      mstore\n        /* \"#utility.yul\":9853:9984   */\n      tag_223\n        /* \"#utility.yul\":9979:9983   */\n      dup2\n        /* \"#utility.yul\":9853:9984   */\n      tag_138\n      jump\t// in\n    tag_223:\n        /* \"#utility.yul\":9845:9984   */\n      swap1\n      pop\n        /* \"#utility.yul\":9572:9991   */\n      swap2\n      swap1\n      pop\n      jump\t// out\n        /* \"#utility.yul\":9997:10222   */\n    tag_139:\n        /* \"#utility.yul\":10137:10171   */\n      0x46756e64696e67207461726765742077617320726561636865642c206e6f2072\n        /* \"#utility.yul\":10133:10134   */\n      0x00\n        /* \"#utility.yul\":10125:10131   */\n      dup3\n        /* \"#utility.yul\":10121:10135   */\n      add\n        /* \"#utility.yul\":10114:10172   */\n      mstore\n        /* \"#utility.yul\":10206:10214   */\n      0x6566756e64730000000000000000000000000000000000000000000000000000\n        /* \"#utility.yul\":10201:10203   */\n      0x20\n        /* \"#utility.yul\":10193:10199   */\n      dup3\n        /* \"#utility.yul\":10189:10204   */\n      add\n        /* \"#utility.yul\":10182:10215   */\n      mstore\n        /* \"#utility.yul\":9997:10222   */\n      pop\n      jump\t// out\n        /* \"#utility.yul\":10228:10594   */\n    tag_140:\n        /* \"#utility.yul\":10370:10373   */\n      0x00\n        /* \"#utility.yul\":10391:10458   */\n      tag_226\n        /* \"#utility.yul\":10455:10457   */\n      0x26\n        /* \"#utility.yul\":10450:10453   */\n      dup4\n        /* \"#utility.yul\":10391:10458   */\n      tag_123\n      jump\t// in\n    tag_226:\n        /* \"#utility.yul\":10384:10458   */\n      swap2\n      pop\n        /* \"#utility.yul\":10467:10560   */\n      tag_227\n        /* \"#utility.yul\":10556:10559   */\n      dup3\n        /* \"#utility.yul\":10467:10560   */\n      tag_139\n      jump\t// in\n    tag_227:\n        /* \"#utility.yul\":10585:10587   */\n      0x40\n        /* \"#utility.yul\":10580:10583   */\n      dup3\n        /* \"#utility.yul\":10576:10588   */\n      add\n        /* \"#utility.yul\":10569:10588   */\n      swap1\n      pop\n        /* \"#utility.yul\":10228:10594   */\n      swap2\n      swap1\n      pop\n      jump\t// out\n        /* \"#utility.yul\":10600:11019   */\n    tag_106:\n        /* \"#utility.yul\":10766:10770   */\n      0x00\n        /* \"#utility.yul\":10804:10806   */\n      0x20\n        /* \"#utility.yul\":10793:10802   */\n      dup3\n        /* \"#utility.yul\":10789:10807   */\n      add\n        /* \"#utility.yul\":10781:10807   */\n      swap1\n      pop\n        /* \"#utility.yul\":10853:10862   */\n      dup2\n        /* \"#utility.yul\":10847:10851   */\n      dup2\n        /* \"#utility.yul\":10843:10863   */\n      sub\n        /* \"#utility.yul\":10839:10840   */\n      0x00\n        /* \"#utility.yul\":10828:10837   */\n      dup4\n        /* \"#utility.yul\":10824:10841   */\n      add\n        /* \"#utility.yul\":10817:10864   */\n      mstore\n        /* \"#utility.yul\":10881:11012   */\n      tag_229\n        /* \"#utility.yul\":11007:11011   */\n      dup2\n        /* \"#utility.yul\":10881:11012   */\n      tag_140\n      jump\t// in\n    tag_229:\n        /* \"#utility.yul\":10873:11012   */\n      swap1\n      pop\n        /* \"#utility.yul\":10600:11019   */\n      swap2\n      swap1\n      pop\n      jump\t// out\n        /* \"#utility.yul\":11025:11193   */\n    tag_141:\n        /* \"#utility.yul\":11165:11185   */\n      0x4e6f2066756e647320746f20726566756e640000000000000000000000000000\n        /* \"#utility.yul\":11161:11162   */\n      0x00\n        /* \"#utility.yul\":11153:11159   */\n      dup3\n        /* \"#utility.yul\":11149:11163   */\n      add\n        /* \"#utility.yul\":11142:11186   */\n      mstore\n        /* \"#utility.yul\":11025:11193   */\n      pop\n      jump\t// out\n        /* \"#utility.yul\":11199:11565   */\n    tag_142:\n        /* \"#utility.yul\":11341:11344   */\n      0x00\n        /* \"#utility.yul\":11362:11429   */\n      tag_232\n        /* \"#utility.yul\":11426:11428   */\n      0x12\n        /* \"#utility.yul\":11421:11424   */\n      dup4\n        /* \"#utility.yul\":11362:11429   */\n      tag_123\n      jump\t// in\n    tag_232:\n        /* \"#utility.yul\":11355:11429   */\n      swap2\n      pop\n        /* \"#utility.yul\":11438:11531   */\n      tag_233\n        /* \"#utility.yul\":11527:11530   */\n      dup3\n        /* \"#utility.yul\":11438:11531   */\n      tag_141\n      jump\t// in\n    tag_233:\n        /* \"#utility.yul\":11556:11558   */\n      0x20\n        /* \"#utility.yul\":11551:11554   */\n      dup3\n        /* \"#utility.yul\":11547:11559   */\n      add\n        /* \"#utility.yul\":11540:11559   */\n      swap1\n      pop\n        /* \"#utility.yul\":11199:11565   */\n      swap2\n      swap1\n      pop\n      jump\t// out\n        /* \"#utility.yul\":11571:11990   */\n    tag_109:\n        /* \"#utility.yul\":11737:11741   */\n      0x00\n        /* \"#utility.yul\":11775:11777   */\n      0x20\n        /* \"#utility.yul\":11764:11773   */\n      dup3\n        /* \"#utility.yul\":11760:11778   */\n      add\n        /* \"#utility.yul\":11752:11778   */\n      swap1\n      pop\n        /* \"#utility.yul\":11824:11833   */\n      dup2\n        /* \"#utility.yul\":11818:11822   */\n      dup2\n        /* \"#utility.yul\":11814:11834   */\n      sub\n        /* \"#utility.yul\":11810:11811   */\n      0x00\n        /* \"#utility.yul\":11799:11808   */\n      dup4\n        /* \"#utility.yul\":11795:11812   */\n      add\n        /* \"#utility.yul\":11788:11835   */\n      mstore\n        /* \"#utility.yul\":11852:11983   */\n      tag_235\n        /* \"#utility.yul\":11978:11982   */\n      dup2\n        /* \"#utility.yul\":11852:11983   */\n      tag_142\n      jump\t// in\n    tag_235:\n        /* \"#utility.yul\":11844:11983   */\n      swap1\n      pop\n        /* \"#utility.yul\":11571:11990   */\n      swap2\n      swap1\n      pop\n      jump\t// out\n\n    auxdata: 0xa2646970667358221220d4e3c0f1fc56b408afae3e71afe3fa0d45d9f40035a9585f874467b0c9806e3464736f6c634300081a0033\n}\n",
				"bytecode": {
					"linkReferences": {},
					"object": "608060405234801561000f575f80fd5b506040516110a03803806110a0833981810160405281019061003191906100d0565b816004819055508042610044919061013b565b60038190555060646002819055503360015f6101000a81548173ffffffffffffffffffffffffffffffffffffffff021916908373ffffffffffffffffffffffffffffffffffffffff160217905550505061016e565b5f80fd5b5f819050919050565b6100af8161009d565b81146100b9575f80fd5b50565b5f815190506100ca816100a6565b92915050565b5f80604083850312156100e6576100e5610099565b5b5f6100f3858286016100bc565b9250506020610104858286016100bc565b9150509250929050565b7f4e487b71000000000000000000000000000000000000000000000000000000005f52601160045260245ffd5b5f6101458261009d565b91506101508361009d565b92508282019050808211156101685761016761010e565b5b92915050565b610f258061017b5f395ff3fe6080604052600436106100a6575f3560e01c80634e260f6f116100635780634e260f6f14610170578063590e1ae31461019a5780636f9fb98a146101b0578063937e09b1146101da578063c59ee1dc14610204578063d4b839921461022e576100a6565b806306e99fef146100aa5780630c08bf88146100b45780631f6d4942146100ca57806324600fc31461010657806329dcb0cf1461011c578063481c6a7514610146575b5f80fd5b6100b2610258565b005b3480156100bf575f80fd5b506100c86103e1565b005b3480156100d5575f80fd5b506100f060048036038101906100eb9190610999565b610567565b6040516100fd91906109dc565b60405180910390f35b348015610111575f80fd5b5061011a61057b565b005b348015610127575f80fd5b5061013061075c565b60405161013d91906109dc565b60405180910390f35b348015610151575f80fd5b5061015a610762565b6040516101679190610a04565b60405180910390f35b34801561017b575f80fd5b50610184610787565b60405161019191906109dc565b60405180910390f35b3480156101a5575f80fd5b506101ae61078d565b005b3480156101bb575f80fd5b506101c4610922565b6040516101d191906109dc565b60405180910390f35b3480156101e5575f80fd5b506101ee610929565b6040516101fb91906109dc565b60405180910390f35b34801561020f575f80fd5b5061021861092f565b60405161022591906109dc565b60405180910390f35b348015610239575f80fd5b50610242610935565b60405161024f91906109dc565b60405180910390f35b600354421061029c576040517f08c379a000000000000000000000000000000000000000000000000000000000815260040161029390610a77565b60405180910390fd5b6002543410156102e1576040517f08c379a00000000000000000000000000000000000000000000000000000000081526004016102d890610adf565b60405180910390fd5b5f805f3373ffffffffffffffffffffffffffffffffffffffff1673ffffffffffffffffffffffffffffffffffffffff1681526020019081526020015f20540361033c5760065f81548092919061033690610b2a565b91905055505b345f803373ffffffffffffffffffffffffffffffffffffffff1673ffffffffffffffffffffffffffffffffffffffff1681526020019081526020015f205f8282546103879190610b71565b925050819055503460055f82825461039f9190610b71565b925050819055507f1bb460ccaaf70fbacfec17a376f8acbd278c1405590ffcc8ebe4b88daf4f64ad33346040516103d7929190610ba4565b60405180910390a1565b60015f9054906101000a900473ffffffffffffffffffffffffffffffffffffffff1673ffffffffffffffffffffffffffffffffffffffff163373ffffffffffffffffffffffffffffffffffffffff1614610470576040517f08c379a000000000000000000000000000000000000000000000000000000000815260040161046790610c15565b60405180910390fd5b6003544210156104b5576040517f08c379a00000000000000000000000000000000000000000000000000000000081526004016104ac90610c7d565b60405180910390fd5b600454600554106104fb576040517f08c379a00000000000000000000000000000000000000000000000000000000081526004016104f290610d0b565b60405180910390fd5b5f47905060015f9054906101000a900473ffffffffffffffffffffffffffffffffffffffff1673ffffffffffffffffffffffffffffffffffffffff166108fc8290811502906040515f60405180830381858888f19350505050158015610563573d5f803e3d5ffd5b5050565b5f602052805f5260405f205f915090505481565b60015f9054906101000a900473ffffffffffffffffffffffffffffffffffffffff1673ffffffffffffffffffffffffffffffffffffffff163373ffffffffffffffffffffffffffffffffffffffff161461060a576040517f08c379a000000000000000000000000000000000000000000000000000000000815260040161060190610d73565b60405180910390fd5b60035442101561064f576040517f08c379a000000000000000000000000000000000000000000000000000000000815260040161064690610c7d565b60405180910390fd5b6004546005541015610696576040517f08c379a000000000000000000000000000000000000000000000000000000000815260040161068d90610ddb565b60405180910390fd5b5f47905060015f9054906101000a900473ffffffffffffffffffffffffffffffffffffffff1673ffffffffffffffffffffffffffffffffffffffff166108fc8290811502906040515f60405180830381858888f193505050501580156106fe573d5f803e3d5ffd5b507feaff4b37086828766ad3268786972c0cd24259d4c87a80f9d3963a3c3d999b0d60015f9054906101000a900473ffffffffffffffffffffffffffffffffffffffff1682604051610751929190610ba4565b60405180910390a150565b60035481565b60015f9054906101000a900473ffffffffffffffffffffffffffffffffffffffff1681565b60065481565b6003544210156107d2576040517f08c379a00000000000000000000000000000000000000000000000000000000081526004016107c990610c7d565b60405180910390fd5b60045460055410610818576040517f08c379a000000000000000000000000000000000000000000000000000000000815260040161080f90610e69565b60405180910390fd5b5f805f3373ffffffffffffffffffffffffffffffffffffffff1673ffffffffffffffffffffffffffffffffffffffff1681526020019081526020015f205490505f811161089a576040517f08c379a000000000000000000000000000000000000000000000000000000000815260040161089190610ed1565b60405180910390fd5b5f805f3373ffffffffffffffffffffffffffffffffffffffff1673ffffffffffffffffffffffffffffffffffffffff1681526020019081526020015f20819055503373ffffffffffffffffffffffffffffffffffffffff166108fc8290811502906040515f60405180830381858888f1935050505015801561091e573d5f803e3d5ffd5b5050565b5f47905090565b60025481565b60055481565b60045481565b5f80fd5b5f73ffffffffffffffffffffffffffffffffffffffff82169050919050565b5f6109688261093f565b9050919050565b6109788161095e565b8114610982575f80fd5b50565b5f813590506109938161096f565b92915050565b5f602082840312156109ae576109ad61093b565b5b5f6109bb84828501610985565b91505092915050565b5f819050919050565b6109d6816109c4565b82525050565b5f6020820190506109ef5f8301846109cd565b92915050565b6109fe8161095e565b82525050565b5f602082019050610a175f8301846109f5565b92915050565b5f82825260208201905092915050565b7f446561646c696e652068617320706173736564000000000000000000000000005f82015250565b5f610a61601383610a1d565b9150610a6c82610a2d565b602082019050919050565b5f6020820190508181035f830152610a8e81610a55565b9050919050565b7f4d696e696d756d20636f6e747269627574696f6e206e6f74206d6574000000005f82015250565b5f610ac9601c83610a1d565b9150610ad482610a95565b602082019050919050565b5f6020820190508181035f830152610af681610abd565b9050919050565b7f4e487b71000000000000000000000000000000000000000000000000000000005f52601160045260245ffd5b5f610b34826109c4565b91507fffffffffffffffffffffffffffffffffffffffffffffffffffffffffffffffff8203610b6657610b65610afd565b5b600182019050919050565b5f610b7b826109c4565b9150610b86836109c4565b9250828201905080821115610b9e57610b9d610afd565b5b92915050565b5f604082019050610bb75f8301856109f5565b610bc460208301846109cd565b9392505050565b7f4f6e6c79206d616e616765722063616e207465726d696e6174650000000000005f82015250565b5f610bff601a83610a1d565b9150610c0a82610bcb565b602082019050919050565b5f6020820190508181035f830152610c2c81610bf3565b9050919050565b7f446561646c696e65206e6f7420796574207061737365640000000000000000005f82015250565b5f610c67601783610a1d565b9150610c7282610c33565b602082019050919050565b5f6020820190508181035f830152610c9481610c5b565b9050919050565b7f46756e64696e67207461726765742077617320726561636865642c2063616e6e5f8201527f6f74207465726d696e6174650000000000000000000000000000000000000000602082015250565b5f610cf5602c83610a1d565b9150610d0082610c9b565b604082019050919050565b5f6020820190508181035f830152610d2281610ce9565b9050919050565b7f4f6e6c79206d616e616765722063616e207769746864726177000000000000005f82015250565b5f610d5d601983610a1d565b9150610d6882610d29565b602082019050919050565b5f6020820190508181035f830152610d8a81610d51565b9050919050565b7f46756e64696e6720746172676574206e6f7420726561636865640000000000005f82015250565b5f610dc5601a83610a1d565b9150610dd082610d91565b602082019050919050565b5f6020820190508181035f830152610df281610db9565b9050919050565b7f46756e64696e67207461726765742077617320726561636865642c206e6f20725f8201527f6566756e64730000000000000000000000000000000000000000000000000000602082015250565b5f610e53602683610a1d565b9150610e5e82610df9565b604082019050919050565b5f6020820190508181035f830152610e8081610e47565b9050919050565b7f4e6f2066756e647320746f20726566756e6400000000000000000000000000005f82015250565b5f610ebb601283610a1d565b9150610ec682610e87565b602082019050919050565b5f6020820190508181035f830152610ee881610eaf565b905091905056fea2646970667358221220d4e3c0f1fc56b408afae3e71afe3fa0d45d9f40035a9585f874467b0c9806e3464736f6c634300081a0033",
					"opcodes": "PUSH1 0x80 PUSH1 0x40 MSTORE CALLVALUE DUP1 ISZERO PUSH2 0xF JUMPI PUSH0 DUP1 REVERT JUMPDEST POP PUSH1 0x40 MLOAD PUSH2 0x10A0 CODESIZE SUB DUP1 PUSH2 0x10A0 DUP4 CODECOPY DUP2 DUP2 ADD PUSH1 0x40 MSTORE DUP2 ADD SWAP1 PUSH2 0x31 SWAP2 SWAP1 PUSH2 0xD0 JUMP JUMPDEST DUP2 PUSH1 0x4 DUP2 SWAP1 SSTORE POP DUP1 TIMESTAMP PUSH2 0x44 SWAP2 SWAP1 PUSH2 0x13B JUMP JUMPDEST PUSH1 0x3 DUP2 SWAP1 SSTORE POP PUSH1 0x64 PUSH1 0x2 DUP2 SWAP1 SSTORE POP CALLER PUSH1 0x1 PUSH0 PUSH2 0x100 EXP DUP2 SLOAD DUP2 PUSH20 0xFFFFFFFFFFFFFFFFFFFFFFFFFFFFFFFFFFFFFFFF MUL NOT AND SWAP1 DUP4 PUSH20 0xFFFFFFFFFFFFFFFFFFFFFFFFFFFFFFFFFFFFFFFF AND MUL OR SWAP1 SSTORE POP POP POP PUSH2 0x16E JUMP JUMPDEST PUSH0 DUP1 REVERT JUMPDEST PUSH0 DUP2 SWAP1 POP SWAP2 SWAP1 POP JUMP JUMPDEST PUSH2 0xAF DUP2 PUSH2 0x9D JUMP JUMPDEST DUP2 EQ PUSH2 0xB9 JUMPI PUSH0 DUP1 REVERT JUMPDEST POP JUMP JUMPDEST PUSH0 DUP2 MLOAD SWAP1 POP PUSH2 0xCA DUP2 PUSH2 0xA6 JUMP JUMPDEST SWAP3 SWAP2 POP POP JUMP JUMPDEST PUSH0 DUP1 PUSH1 0x40 DUP4 DUP6 SUB SLT ISZERO PUSH2 0xE6 JUMPI PUSH2 0xE5 PUSH2 0x99 JUMP JUMPDEST JUMPDEST PUSH0 PUSH2 0xF3 DUP6 DUP3 DUP7 ADD PUSH2 0xBC JUMP JUMPDEST SWAP3 POP POP PUSH1 0x20 PUSH2 0x104 DUP6 DUP3 DUP7 ADD PUSH2 0xBC JUMP JUMPDEST SWAP2 POP POP SWAP3 POP SWAP3 SWAP1 POP JUMP JUMPDEST PUSH32 0x4E487B7100000000000000000000000000000000000000000000000000000000 PUSH0 MSTORE PUSH1 0x11 PUSH1 0x4 MSTORE PUSH1 0x24 PUSH0 REVERT JUMPDEST PUSH0 PUSH2 0x145 DUP3 PUSH2 0x9D JUMP JUMPDEST SWAP2 POP PUSH2 0x150 DUP4 PUSH2 0x9D JUMP JUMPDEST SWAP3 POP DUP3 DUP3 ADD SWAP1 POP DUP1 DUP3 GT ISZERO PUSH2 0x168 JUMPI PUSH2 0x167 PUSH2 0x10E JUMP JUMPDEST JUMPDEST SWAP3 SWAP2 POP POP JUMP JUMPDEST PUSH2 0xF25 DUP1 PUSH2 0x17B PUSH0 CODECOPY PUSH0 RETURN INVALID PUSH1 0x80 PUSH1 0x40 MSTORE PUSH1 0x4 CALLDATASIZE LT PUSH2 0xA6 JUMPI PUSH0 CALLDATALOAD PUSH1 0xE0 SHR DUP1 PUSH4 0x4E260F6F GT PUSH2 0x63 JUMPI DUP1 PUSH4 0x4E260F6F EQ PUSH2 0x170 JUMPI DUP1 PUSH4 0x590E1AE3 EQ PUSH2 0x19A JUMPI DUP1 PUSH4 0x6F9FB98A EQ PUSH2 0x1B0 JUMPI DUP1 PUSH4 0x937E09B1 EQ PUSH2 0x1DA JUMPI DUP1 PUSH4 0xC59EE1DC EQ PUSH2 0x204 JUMPI DUP1 PUSH4 0xD4B83992 EQ PUSH2 0x22E JUMPI PUSH2 0xA6 JUMP JUMPDEST DUP1 PUSH4 0x6E99FEF EQ PUSH2 0xAA JUMPI DUP1 PUSH4 0xC08BF88 EQ PUSH2 0xB4 JUMPI DUP1 PUSH4 0x1F6D4942 EQ PUSH2 0xCA JUMPI DUP1 PUSH4 0x24600FC3 EQ PUSH2 0x106 JUMPI DUP1 PUSH4 0x29DCB0CF EQ PUSH2 0x11C JUMPI DUP1 PUSH4 0x481C6A75 EQ PUSH2 0x146 JUMPI JUMPDEST PUSH0 DUP1 REVERT JUMPDEST PUSH2 0xB2 PUSH2 0x258 JUMP JUMPDEST STOP JUMPDEST CALLVALUE DUP1 ISZERO PUSH2 0xBF JUMPI PUSH0 DUP1 REVERT JUMPDEST POP PUSH2 0xC8 PUSH2 0x3E1 JUMP JUMPDEST STOP JUMPDEST CALLVALUE DUP1 ISZERO PUSH2 0xD5 JUMPI PUSH0 DUP1 REVERT JUMPDEST POP PUSH2 0xF0 PUSH1 0x4 DUP1 CALLDATASIZE SUB DUP2 ADD SWAP1 PUSH2 0xEB SWAP2 SWAP1 PUSH2 0x999 JUMP JUMPDEST PUSH2 0x567 JUMP JUMPDEST PUSH1 0x40 MLOAD PUSH2 0xFD SWAP2 SWAP1 PUSH2 0x9DC JUMP JUMPDEST PUSH1 0x40 MLOAD DUP1 SWAP2 SUB SWAP1 RETURN JUMPDEST CALLVALUE DUP1 ISZERO PUSH2 0x111 JUMPI PUSH0 DUP1 REVERT JUMPDEST POP PUSH2 0x11A PUSH2 0x57B JUMP JUMPDEST STOP JUMPDEST CALLVALUE DUP1 ISZERO PUSH2 0x127 JUMPI PUSH0 DUP1 REVERT JUMPDEST POP PUSH2 0x130 PUSH2 0x75C JUMP JUMPDEST PUSH1 0x40 MLOAD PUSH2 0x13D SWAP2 SWAP1 PUSH2 0x9DC JUMP JUMPDEST PUSH1 0x40 MLOAD DUP1 SWAP2 SUB SWAP1 RETURN JUMPDEST CALLVALUE DUP1 ISZERO PUSH2 0x151 JUMPI PUSH0 DUP1 REVERT JUMPDEST POP PUSH2 0x15A PUSH2 0x762 JUMP JUMPDEST PUSH1 0x40 MLOAD PUSH2 0x167 SWAP2 SWAP1 PUSH2 0xA04 JUMP JUMPDEST PUSH1 0x40 MLOAD DUP1 SWAP2 SUB SWAP1 RETURN JUMPDEST CALLVALUE DUP1 ISZERO PUSH2 0x17B JUMPI PUSH0 DUP1 REVERT JUMPDEST POP PUSH2 0x184 PUSH2 0x787 JUMP JUMPDEST PUSH1 0x40 MLOAD PUSH2 0x191 SWAP2 SWAP1 PUSH2 0x9DC JUMP JUMPDEST PUSH1 0x40 MLOAD DUP1 SWAP2 SUB SWAP1 RETURN JUMPDEST CALLVALUE DUP1 ISZERO PUSH2 0x1A5 JUMPI PUSH0 DUP1 REVERT JUMPDEST POP PUSH2 0x1AE PUSH2 0x78D JUMP JUMPDEST STOP JUMPDEST CALLVALUE DUP1 ISZERO PUSH2 0x1BB JUMPI PUSH0 DUP1 REVERT JUMPDEST POP PUSH2 0x1C4 PUSH2 0x922 JUMP JUMPDEST PUSH1 0x40 MLOAD PUSH2 0x1D1 SWAP2 SWAP1 PUSH2 0x9DC JUMP JUMPDEST PUSH1 0x40 MLOAD DUP1 SWAP2 SUB SWAP1 RETURN JUMPDEST CALLVALUE DUP1 ISZERO PUSH2 0x1E5 JUMPI PUSH0 DUP1 REVERT JUMPDEST POP PUSH2 0x1EE PUSH2 0x929 JUMP JUMPDEST PUSH1 0x40 MLOAD PUSH2 0x1FB SWAP2 SWAP1 PUSH2 0x9DC JUMP JUMPDEST PUSH1 0x40 MLOAD DUP1 SWAP2 SUB SWAP1 RETURN JUMPDEST CALLVALUE DUP1 ISZERO PUSH2 0x20F JUMPI PUSH0 DUP1 REVERT JUMPDEST POP PUSH2 0x218 PUSH2 0x92F JUMP JUMPDEST PUSH1 0x40 MLOAD PUSH2 0x225 SWAP2 SWAP1 PUSH2 0x9DC JUMP JUMPDEST PUSH1 0x40 MLOAD DUP1 SWAP2 SUB SWAP1 RETURN JUMPDEST CALLVALUE DUP1 ISZERO PUSH2 0x239 JUMPI PUSH0 DUP1 REVERT JUMPDEST POP PUSH2 0x242 PUSH2 0x935 JUMP JUMPDEST PUSH1 0x40 MLOAD PUSH2 0x24F SWAP2 SWAP1 PUSH2 0x9DC JUMP JUMPDEST PUSH1 0x40 MLOAD DUP1 SWAP2 SUB SWAP1 RETURN JUMPDEST PUSH1 0x3 SLOAD TIMESTAMP LT PUSH2 0x29C JUMPI PUSH1 0x40 MLOAD PUSH32 0x8C379A000000000000000000000000000000000000000000000000000000000 DUP2 MSTORE PUSH1 0x4 ADD PUSH2 0x293 SWAP1 PUSH2 0xA77 JUMP JUMPDEST PUSH1 0x40 MLOAD DUP1 SWAP2 SUB SWAP1 REVERT JUMPDEST PUSH1 0x2 SLOAD CALLVALUE LT ISZERO PUSH2 0x2E1 JUMPI PUSH1 0x40 MLOAD PUSH32 0x8C379A000000000000000000000000000000000000000000000000000000000 DUP2 MSTORE PUSH1 0x4 ADD PUSH2 0x2D8 SWAP1 PUSH2 0xADF JUMP JUMPDEST PUSH1 0x40 MLOAD DUP1 SWAP2 SUB SWAP1 REVERT JUMPDEST PUSH0 DUP1 PUSH0 CALLER PUSH20 0xFFFFFFFFFFFFFFFFFFFFFFFFFFFFFFFFFFFFFFFF AND PUSH20 0xFFFFFFFFFFFFFFFFFFFFFFFFFFFFFFFFFFFFFFFF AND DUP2 MSTORE PUSH1 0x20 ADD SWAP1 DUP2 MSTORE PUSH1 0x20 ADD PUSH0 KECCAK256 SLOAD SUB PUSH2 0x33C JUMPI PUSH1 0x6 PUSH0 DUP2 SLOAD DUP1 SWAP3 SWAP2 SWAP1 PUSH2 0x336 SWAP1 PUSH2 0xB2A JUMP JUMPDEST SWAP2 SWAP1 POP SSTORE POP JUMPDEST CALLVALUE PUSH0 DUP1 CALLER PUSH20 0xFFFFFFFFFFFFFFFFFFFFFFFFFFFFFFFFFFFFFFFF AND PUSH20 0xFFFFFFFFFFFFFFFFFFFFFFFFFFFFFFFFFFFFFFFF AND DUP2 MSTORE PUSH1 0x20 ADD SWAP1 DUP2 MSTORE PUSH1 0x20 ADD PUSH0 KECCAK256 PUSH0 DUP3 DUP3 SLOAD PUSH2 0x387 SWAP2 SWAP1 PUSH2 0xB71 JUMP JUMPDEST SWAP3 POP POP DUP2 SWAP1 SSTORE POP CALLVALUE PUSH1 0x5 PUSH0 DUP3 DUP3 SLOAD PUSH2 0x39F SWAP2 SWAP1 PUSH2 0xB71 JUMP JUMPDEST SWAP3 POP POP DUP2 SWAP1 SSTORE POP PUSH32 0x1BB460CCAAF70FBACFEC17A376F8ACBD278C1405590FFCC8EBE4B88DAF4F64AD CALLER CALLVALUE PUSH1 0x40 MLOAD PUSH2 0x3D7 SWAP3 SWAP2 SWAP1 PUSH2 0xBA4 JUMP JUMPDEST PUSH1 0x40 MLOAD DUP1 SWAP2 SUB SWAP1 LOG1 JUMP JUMPDEST PUSH1 0x1 PUSH0 SWAP1 SLOAD SWAP1 PUSH2 0x100 EXP SWAP1 DIV PUSH20 0xFFFFFFFFFFFFFFFFFFFFFFFFFFFFFFFFFFFFFFFF AND PUSH20 0xFFFFFFFFFFFFFFFFFFFFFFFFFFFFFFFFFFFFFFFF AND CALLER PUSH20 0xFFFFFFFFFFFFFFFFFFFFFFFFFFFFFFFFFFFFFFFF AND EQ PUSH2 0x470 JUMPI PUSH1 0x40 MLOAD PUSH32 0x8C379A000000000000000000000000000000000000000000000000000000000 DUP2 MSTORE PUSH1 0x4 ADD PUSH2 0x467 SWAP1 PUSH2 0xC15 JUMP JUMPDEST PUSH1 0x40 MLOAD DUP1 SWAP2 SUB SWAP1 REVERT JUMPDEST PUSH1 0x3 SLOAD TIMESTAMP LT ISZERO PUSH2 0x4B5 JUMPI PUSH1 0x40 MLOAD PUSH32 0x8C379A000000000000000000000000000000000000000000000000000000000 DUP2 MSTORE PUSH1 0x4 ADD PUSH2 0x4AC SWAP1 PUSH2 0xC7D JUMP JUMPDEST PUSH1 0x40 MLOAD DUP1 SWAP2 SUB SWAP1 REVERT JUMPDEST PUSH1 0x4 SLOAD PUSH1 0x5 SLOAD LT PUSH2 0x4FB JUMPI PUSH1 0x40 MLOAD PUSH32 0x8C379A000000000000000000000000000000000000000000000000000000000 DUP2 MSTORE PUSH1 0x4 ADD PUSH2 0x4F2 SWAP1 PUSH2 0xD0B JUMP JUMPDEST PUSH1 0x40 MLOAD DUP1 SWAP2 SUB SWAP1 REVERT JUMPDEST PUSH0 SELFBALANCE SWAP1 POP PUSH1 0x1 PUSH0 SWAP1 SLOAD SWAP1 PUSH2 0x100 EXP SWAP1 DIV PUSH20 0xFFFFFFFFFFFFFFFFFFFFFFFFFFFFFFFFFFFFFFFF AND PUSH20 0xFFFFFFFFFFFFFFFFFFFFFFFFFFFFFFFFFFFFFFFF AND PUSH2 0x8FC DUP3 SWAP1 DUP2 ISZERO MUL SWAP1 PUSH1 0x40 MLOAD PUSH0 PUSH1 0x40 MLOAD DUP1 DUP4 SUB DUP2 DUP6 DUP9 DUP9 CALL SWAP4 POP POP POP POP ISZERO DUP1 ISZERO PUSH2 0x563 JUMPI RETURNDATASIZE PUSH0 DUP1 RETURNDATACOPY RETURNDATASIZE PUSH0 REVERT JUMPDEST POP POP JUMP JUMPDEST PUSH0 PUSH1 0x20 MSTORE DUP1 PUSH0 MSTORE PUSH1 0x40 PUSH0 KECCAK256 PUSH0 SWAP2 POP SWAP1 POP SLOAD DUP2 JUMP JUMPDEST PUSH1 0x1 PUSH0 SWAP1 SLOAD SWAP1 PUSH2 0x100 EXP SWAP1 DIV PUSH20 0xFFFFFFFFFFFFFFFFFFFFFFFFFFFFFFFFFFFFFFFF AND PUSH20 0xFFFFFFFFFFFFFFFFFFFFFFFFFFFFFFFFFFFFFFFF AND CALLER PUSH20 0xFFFFFFFFFFFFFFFFFFFFFFFFFFFFFFFFFFFFFFFF AND EQ PUSH2 0x60A JUMPI PUSH1 0x40 MLOAD PUSH32 0x8C379A000000000000000000000000000000000000000000000000000000000 DUP2 MSTORE PUSH1 0x4 ADD PUSH2 0x601 SWAP1 PUSH2 0xD73 JUMP JUMPDEST PUSH1 0x40 MLOAD DUP1 SWAP2 SUB SWAP1 REVERT JUMPDEST PUSH1 0x3 SLOAD TIMESTAMP LT ISZERO PUSH2 0x64F JUMPI PUSH1 0x40 MLOAD PUSH32 0x8C379A000000000000000000000000000000000000000000000000000000000 DUP2 MSTORE PUSH1 0x4 ADD PUSH2 0x646 SWAP1 PUSH2 0xC7D JUMP JUMPDEST PUSH1 0x40 MLOAD DUP1 SWAP2 SUB SWAP1 REVERT JUMPDEST PUSH1 0x4 SLOAD PUSH1 0x5 SLOAD LT ISZERO PUSH2 0x696 JUMPI PUSH1 0x40 MLOAD PUSH32 0x8C379A000000000000000000000000000000000000000000000000000000000 DUP2 MSTORE PUSH1 0x4 ADD PUSH2 0x68D SWAP1 PUSH2 0xDDB JUMP JUMPDEST PUSH1 0x40 MLOAD DUP1 SWAP2 SUB SWAP1 REVERT JUMPDEST PUSH0 SELFBALANCE SWAP1 POP PUSH1 0x1 PUSH0 SWAP1 SLOAD SWAP1 PUSH2 0x100 EXP SWAP1 DIV PUSH20 0xFFFFFFFFFFFFFFFFFFFFFFFFFFFFFFFFFFFFFFFF AND PUSH20 0xFFFFFFFFFFFFFFFFFFFFFFFFFFFFFFFFFFFFFFFF AND PUSH2 0x8FC DUP3 SWAP1 DUP2 ISZERO MUL SWAP1 PUSH1 0x40 MLOAD PUSH0 PUSH1 0x40 MLOAD DUP1 DUP4 SUB DUP2 DUP6 DUP9 DUP9 CALL SWAP4 POP POP POP POP ISZERO DUP1 ISZERO PUSH2 0x6FE JUMPI RETURNDATASIZE PUSH0 DUP1 RETURNDATACOPY RETURNDATASIZE PUSH0 REVERT JUMPDEST POP PUSH32 0xEAFF4B37086828766AD3268786972C0CD24259D4C87A80F9D3963A3C3D999B0D PUSH1 0x1 PUSH0 SWAP1 SLOAD SWAP1 PUSH2 0x100 EXP SWAP1 DIV PUSH20 0xFFFFFFFFFFFFFFFFFFFFFFFFFFFFFFFFFFFFFFFF AND DUP3 PUSH1 0x40 MLOAD PUSH2 0x751 SWAP3 SWAP2 SWAP1 PUSH2 0xBA4 JUMP JUMPDEST PUSH1 0x40 MLOAD DUP1 SWAP2 SUB SWAP1 LOG1 POP JUMP JUMPDEST PUSH1 0x3 SLOAD DUP2 JUMP JUMPDEST PUSH1 0x1 PUSH0 SWAP1 SLOAD SWAP1 PUSH2 0x100 EXP SWAP1 DIV PUSH20 0xFFFFFFFFFFFFFFFFFFFFFFFFFFFFFFFFFFFFFFFF AND DUP2 JUMP JUMPDEST PUSH1 0x6 SLOAD DUP2 JUMP JUMPDEST PUSH1 0x3 SLOAD TIMESTAMP LT ISZERO PUSH2 0x7D2 JUMPI PUSH1 0x40 MLOAD PUSH32 0x8C379A000000000000000000000000000000000000000000000000000000000 DUP2 MSTORE PUSH1 0x4 ADD PUSH2 0x7C9 SWAP1 PUSH2 0xC7D JUMP JUMPDEST PUSH1 0x40 MLOAD DUP1 SWAP2 SUB SWAP1 REVERT JUMPDEST PUSH1 0x4 SLOAD PUSH1 0x5 SLOAD LT PUSH2 0x818 JUMPI PUSH1 0x40 MLOAD PUSH32 0x8C379A000000000000000000000000000000000000000000000000000000000 DUP2 MSTORE PUSH1 0x4 ADD PUSH2 0x80F SWAP1 PUSH2 0xE69 JUMP JUMPDEST PUSH1 0x40 MLOAD DUP1 SWAP2 SUB SWAP1 REVERT JUMPDEST PUSH0 DUP1 PUSH0 CALLER PUSH20 0xFFFFFFFFFFFFFFFFFFFFFFFFFFFFFFFFFFFFFFFF AND PUSH20 0xFFFFFFFFFFFFFFFFFFFFFFFFFFFFFFFFFFFFFFFF AND DUP2 MSTORE PUSH1 0x20 ADD SWAP1 DUP2 MSTORE PUSH1 0x20 ADD PUSH0 KECCAK256 SLOAD SWAP1 POP PUSH0 DUP2 GT PUSH2 0x89A JUMPI PUSH1 0x40 MLOAD PUSH32 0x8C379A000000000000000000000000000000000000000000000000000000000 DUP2 MSTORE PUSH1 0x4 ADD PUSH2 0x891 SWAP1 PUSH2 0xED1 JUMP JUMPDEST PUSH1 0x40 MLOAD DUP1 SWAP2 SUB SWAP1 REVERT JUMPDEST PUSH0 DUP1 PUSH0 CALLER PUSH20 0xFFFFFFFFFFFFFFFFFFFFFFFFFFFFFFFFFFFFFFFF AND PUSH20 0xFFFFFFFFFFFFFFFFFFFFFFFFFFFFFFFFFFFFFFFF AND DUP2 MSTORE PUSH1 0x20 ADD SWAP1 DUP2 MSTORE PUSH1 0x20 ADD PUSH0 KECCAK256 DUP2 SWAP1 SSTORE POP CALLER PUSH20 0xFFFFFFFFFFFFFFFFFFFFFFFFFFFFFFFFFFFFFFFF AND PUSH2 0x8FC DUP3 SWAP1 DUP2 ISZERO MUL SWAP1 PUSH1 0x40 MLOAD PUSH0 PUSH1 0x40 MLOAD DUP1 DUP4 SUB DUP2 DUP6 DUP9 DUP9 CALL SWAP4 POP POP POP POP ISZERO DUP1 ISZERO PUSH2 0x91E JUMPI RETURNDATASIZE PUSH0 DUP1 RETURNDATACOPY RETURNDATASIZE PUSH0 REVERT JUMPDEST POP POP JUMP JUMPDEST PUSH0 SELFBALANCE SWAP1 POP SWAP1 JUMP JUMPDEST PUSH1 0x2 SLOAD DUP2 JUMP JUMPDEST PUSH1 0x5 SLOAD DUP2 JUMP JUMPDEST PUSH1 0x4 SLOAD DUP2 JUMP JUMPDEST PUSH0 DUP1 REVERT JUMPDEST PUSH0 PUSH20 0xFFFFFFFFFFFFFFFFFFFFFFFFFFFFFFFFFFFFFFFF DUP3 AND SWAP1 POP SWAP2 SWAP1 POP JUMP JUMPDEST PUSH0 PUSH2 0x968 DUP3 PUSH2 0x93F JUMP JUMPDEST SWAP1 POP SWAP2 SWAP1 POP JUMP JUMPDEST PUSH2 0x978 DUP2 PUSH2 0x95E JUMP JUMPDEST DUP2 EQ PUSH2 0x982 JUMPI PUSH0 DUP1 REVERT JUMPDEST POP JUMP JUMPDEST PUSH0 DUP2 CALLDATALOAD SWAP1 POP PUSH2 0x993 DUP2 PUSH2 0x96F JUMP JUMPDEST SWAP3 SWAP2 POP POP JUMP JUMPDEST PUSH0 PUSH1 0x20 DUP3 DUP5 SUB SLT ISZERO PUSH2 0x9AE JUMPI PUSH2 0x9AD PUSH2 0x93B JUMP JUMPDEST JUMPDEST PUSH0 PUSH2 0x9BB DUP5 DUP3 DUP6 ADD PUSH2 0x985 JUMP JUMPDEST SWAP2 POP POP SWAP3 SWAP2 POP POP JUMP JUMPDEST PUSH0 DUP2 SWAP1 POP SWAP2 SWAP1 POP JUMP JUMPDEST PUSH2 0x9D6 DUP2 PUSH2 0x9C4 JUMP JUMPDEST DUP3 MSTORE POP POP JUMP JUMPDEST PUSH0 PUSH1 0x20 DUP3 ADD SWAP1 POP PUSH2 0x9EF PUSH0 DUP4 ADD DUP5 PUSH2 0x9CD JUMP JUMPDEST SWAP3 SWAP2 POP POP JUMP JUMPDEST PUSH2 0x9FE DUP2 PUSH2 0x95E JUMP JUMPDEST DUP3 MSTORE POP POP JUMP JUMPDEST PUSH0 PUSH1 0x20 DUP3 ADD SWAP1 POP PUSH2 0xA17 PUSH0 DUP4 ADD DUP5 PUSH2 0x9F5 JUMP JUMPDEST SWAP3 SWAP2 POP POP JUMP JUMPDEST PUSH0 DUP3 DUP3 MSTORE PUSH1 0x20 DUP3 ADD SWAP1 POP SWAP3 SWAP2 POP POP JUMP JUMPDEST PUSH32 0x446561646C696E65206861732070617373656400000000000000000000000000 PUSH0 DUP3 ADD MSTORE POP JUMP JUMPDEST PUSH0 PUSH2 0xA61 PUSH1 0x13 DUP4 PUSH2 0xA1D JUMP JUMPDEST SWAP2 POP PUSH2 0xA6C DUP3 PUSH2 0xA2D JUMP JUMPDEST PUSH1 0x20 DUP3 ADD SWAP1 POP SWAP2 SWAP1 POP JUMP JUMPDEST PUSH0 PUSH1 0x20 DUP3 ADD SWAP1 POP DUP2 DUP2 SUB PUSH0 DUP4 ADD MSTORE PUSH2 0xA8E DUP2 PUSH2 0xA55 JUMP JUMPDEST SWAP1 POP SWAP2 SWAP1 POP JUMP JUMPDEST PUSH32 0x4D696E696D756D20636F6E747269627574696F6E206E6F74206D657400000000 PUSH0 DUP3 ADD MSTORE POP JUMP JUMPDEST PUSH0 PUSH2 0xAC9 PUSH1 0x1C DUP4 PUSH2 0xA1D JUMP JUMPDEST SWAP2 POP PUSH2 0xAD4 DUP3 PUSH2 0xA95 JUMP JUMPDEST PUSH1 0x20 DUP3 ADD SWAP1 POP SWAP2 SWAP1 POP JUMP JUMPDEST PUSH0 PUSH1 0x20 DUP3 ADD SWAP1 POP DUP2 DUP2 SUB PUSH0 DUP4 ADD MSTORE PUSH2 0xAF6 DUP2 PUSH2 0xABD JUMP JUMPDEST SWAP1 POP SWAP2 SWAP1 POP JUMP JUMPDEST PUSH32 0x4E487B7100000000000000000000000000000000000000000000000000000000 PUSH0 MSTORE PUSH1 0x11 PUSH1 0x4 MSTORE PUSH1 0x24 PUSH0 REVERT JUMPDEST PUSH0 PUSH2 0xB34 DUP3 PUSH2 0x9C4 JUMP JUMPDEST SWAP2 POP PUSH32 0xFFFFFFFFFFFFFFFFFFFFFFFFFFFFFFFFFFFFFFFFFFFFFFFFFFFFFFFFFFFFFFFF DUP3 SUB PUSH2 0xB66 JUMPI PUSH2 0xB65 PUSH2 0xAFD JUMP JUMPDEST JUMPDEST PUSH1 0x1 DUP3 ADD SWAP1 POP SWAP2 SWAP1 POP JUMP JUMPDEST PUSH0 PUSH2 0xB7B DUP3 PUSH2 0x9C4 JUMP JUMPDEST SWAP2 POP PUSH2 0xB86 DUP4 PUSH2 0x9C4 JUMP JUMPDEST SWAP3 POP DUP3 DUP3 ADD SWAP1 POP DUP1 DUP3 GT ISZERO PUSH2 0xB9E JUMPI PUSH2 0xB9D PUSH2 0xAFD JUMP JUMPDEST JUMPDEST SWAP3 SWAP2 POP POP JUMP JUMPDEST PUSH0 PUSH1 0x40 DUP3 ADD SWAP1 POP PUSH2 0xBB7 PUSH0 DUP4 ADD DUP6 PUSH2 0x9F5 JUMP JUMPDEST PUSH2 0xBC4 PUSH1 0x20 DUP4 ADD DUP5 PUSH2 0x9CD JUMP JUMPDEST SWAP4 SWAP3 POP POP POP JUMP JUMPDEST PUSH32 0x4F6E6C79206D616E616765722063616E207465726D696E617465000000000000 PUSH0 DUP3 ADD MSTORE POP JUMP JUMPDEST PUSH0 PUSH2 0xBFF PUSH1 0x1A DUP4 PUSH2 0xA1D JUMP JUMPDEST SWAP2 POP PUSH2 0xC0A DUP3 PUSH2 0xBCB JUMP JUMPDEST PUSH1 0x20 DUP3 ADD SWAP1 POP SWAP2 SWAP1 POP JUMP JUMPDEST PUSH0 PUSH1 0x20 DUP3 ADD SWAP1 POP DUP2 DUP2 SUB PUSH0 DUP4 ADD MSTORE PUSH2 0xC2C DUP2 PUSH2 0xBF3 JUMP JUMPDEST SWAP1 POP SWAP2 SWAP1 POP JUMP JUMPDEST PUSH32 0x446561646C696E65206E6F742079657420706173736564000000000000000000 PUSH0 DUP3 ADD MSTORE POP JUMP JUMPDEST PUSH0 PUSH2 0xC67 PUSH1 0x17 DUP4 PUSH2 0xA1D JUMP JUMPDEST SWAP2 POP PUSH2 0xC72 DUP3 PUSH2 0xC33 JUMP JUMPDEST PUSH1 0x20 DUP3 ADD SWAP1 POP SWAP2 SWAP1 POP JUMP JUMPDEST PUSH0 PUSH1 0x20 DUP3 ADD SWAP1 POP DUP2 DUP2 SUB PUSH0 DUP4 ADD MSTORE PUSH2 0xC94 DUP2 PUSH2 0xC5B JUMP JUMPDEST SWAP1 POP SWAP2 SWAP1 POP JUMP JUMPDEST PUSH32 0x46756E64696E67207461726765742077617320726561636865642C2063616E6E PUSH0 DUP3 ADD MSTORE PUSH32 0x6F74207465726D696E6174650000000000000000000000000000000000000000 PUSH1 0x20 DUP3 ADD MSTORE POP JUMP JUMPDEST PUSH0 PUSH2 0xCF5 PUSH1 0x2C DUP4 PUSH2 0xA1D JUMP JUMPDEST SWAP2 POP PUSH2 0xD00 DUP3 PUSH2 0xC9B JUMP JUMPDEST PUSH1 0x40 DUP3 ADD SWAP1 POP SWAP2 SWAP1 POP JUMP JUMPDEST PUSH0 PUSH1 0x20 DUP3 ADD SWAP1 POP DUP2 DUP2 SUB PUSH0 DUP4 ADD MSTORE PUSH2 0xD22 DUP2 PUSH2 0xCE9 JUMP JUMPDEST SWAP1 POP SWAP2 SWAP1 POP JUMP JUMPDEST PUSH32 0x4F6E6C79206D616E616765722063616E20776974686472617700000000000000 PUSH0 DUP3 ADD MSTORE POP JUMP JUMPDEST PUSH0 PUSH2 0xD5D PUSH1 0x19 DUP4 PUSH2 0xA1D JUMP JUMPDEST SWAP2 POP PUSH2 0xD68 DUP3 PUSH2 0xD29 JUMP JUMPDEST PUSH1 0x20 DUP3 ADD SWAP1 POP SWAP2 SWAP1 POP JUMP JUMPDEST PUSH0 PUSH1 0x20 DUP3 ADD SWAP1 POP DUP2 DUP2 SUB PUSH0 DUP4 ADD MSTORE PUSH2 0xD8A DUP2 PUSH2 0xD51 JUMP JUMPDEST SWAP1 POP SWAP2 SWAP1 POP JUMP JUMPDEST PUSH32 0x46756E64696E6720746172676574206E6F742072656163686564000000000000 PUSH0 DUP3 ADD MSTORE POP JUMP JUMPDEST PUSH0 PUSH2 0xDC5 PUSH1 0x1A DUP4 PUSH2 0xA1D JUMP JUMPDEST SWAP2 POP PUSH2 0xDD0 DUP3 PUSH2 0xD91 JUMP JUMPDEST PUSH1 0x20 DUP3 ADD SWAP1 POP SWAP2 SWAP1 POP JUMP JUMPDEST PUSH0 PUSH1 0x20 DUP3 ADD SWAP1 POP DUP2 DUP2 SUB PUSH0 DUP4 ADD MSTORE PUSH2 0xDF2 DUP2 PUSH2 0xDB9 JUMP JUMPDEST SWAP1 POP SWAP2 SWAP1 POP JUMP JUMPDEST PUSH32 0x46756E64696E67207461726765742077617320726561636865642C206E6F2072 PUSH0 DUP3 ADD MSTORE PUSH32 0x6566756E64730000000000000000000000000000000000000000000000000000 PUSH1 0x20 DUP3 ADD MSTORE POP JUMP JUMPDEST PUSH0 PUSH2 0xE53 PUSH1 0x26 DUP4 PUSH2 0xA1D JUMP JUMPDEST SWAP2 POP PUSH2 0xE5E DUP3 PUSH2 0xDF9 JUMP JUMPDEST PUSH1 0x40 DUP3 ADD SWAP1 POP SWAP2 SWAP1 POP JUMP JUMPDEST PUSH0 PUSH1 0x20 DUP3 ADD SWAP1 POP DUP2 DUP2 SUB PUSH0 DUP4 ADD MSTORE PUSH2 0xE80 DUP2 PUSH2 0xE47 JUMP JUMPDEST SWAP1 POP SWAP2 SWAP1 POP JUMP JUMPDEST PUSH32 0x4E6F2066756E647320746F20726566756E640000000000000000000000000000 PUSH0 DUP3 ADD MSTORE POP JUMP JUMPDEST PUSH0 PUSH2 0xEBB PUSH1 0x12 DUP4 PUSH2 0xA1D JUMP JUMPDEST SWAP2 POP PUSH2 0xEC6 DUP3 PUSH2 0xE87 JUMP JUMPDEST PUSH1 0x20 DUP3 ADD SWAP1 POP SWAP2 SWAP1 POP JUMP JUMPDEST PUSH0 PUSH1 0x20 DUP3 ADD SWAP1 POP DUP2 DUP2 SUB PUSH0 DUP4 ADD MSTORE PUSH2 0xEE8 DUP2 PUSH2 0xEAF JUMP JUMPDEST SWAP1 POP SWAP2 SWAP1 POP JUMP INVALID LOG2 PUSH5 0x6970667358 0x22 SLT KECCAK256 0xD4 0xE3 0xC0 CALL 0xFC JUMP 0xB4 ADDMOD 0xAF 0xAE RETURNDATACOPY PUSH18 0xAFE3FA0D45D9F40035A9585F874467B0C980 PUSH15 0x3464736F6C634300081A0033000000 "
				},
				"gasEstimates": {
					"creation": {
						"codeDepositCost": "775400",
						"executionCost": "infinite",
						"totalCost": "infinite"
					},
					"external": {
						"contributors(address)": "2846",
						"deadline()": "2514",
						"getContractBalance()": "378",
						"manager()": "2619",
						"minimumContribution()": "2491",
						"noOfContributors()": "2425",
						"raisedAmount()": "2513",
						"refund()": "infinite",
						"sendEth()": "infinite",
						"target()": "2535",
						"terminate()": "infinite",
						"withdrawFunds()": "infinite"
					}
				},
				"methodIdentifiers": {
					"contributors(address)": "1f6d4942",
					"deadline()": "29dcb0cf",
					"getContractBalance()": "6f9fb98a",
					"manager()": "481c6a75",
					"minimumContribution()": "937e09b1",
					"noOfContributors()": "4e260f6f",
					"raisedAmount()": "c59ee1dc",
					"refund()": "590e1ae3",
					"sendEth()": "06e99fef",
					"target()": "d4b83992",
					"terminate()": "0c08bf88",
					"withdrawFunds()": "24600fc3"
				}
			},
			"storageLayout": {
				"storage": [
					{
						"astId": 5,
						"contract": "CrowdFunding .sol:CrowdFunding",
						"label": "contributors",
						"offset": 0,
						"slot": "0",
						"type": "t_mapping(t_address,t_uint256)"
					},
					{
						"astId": 7,
						"contract": "CrowdFunding .sol:CrowdFunding",
						"label": "manager",
						"offset": 0,
						"slot": "1",
						"type": "t_address"
					},
					{
						"astId": 9,
						"contract": "CrowdFunding .sol:CrowdFunding",
						"label": "minimumContribution",
						"offset": 0,
						"slot": "2",
						"type": "t_uint256"
					},
					{
						"astId": 11,
						"contract": "CrowdFunding .sol:CrowdFunding",
						"label": "deadline",
						"offset": 0,
						"slot": "3",
						"type": "t_uint256"
					},
					{
						"astId": 13,
						"contract": "CrowdFunding .sol:CrowdFunding",
						"label": "target",
						"offset": 0,
						"slot": "4",
						"type": "t_uint256"
					},
					{
						"astId": 15,
						"contract": "CrowdFunding .sol:CrowdFunding",
						"label": "raisedAmount",
						"offset": 0,
						"slot": "5",
						"type": "t_uint256"
					},
					{
						"astId": 17,
						"contract": "CrowdFunding .sol:CrowdFunding",
						"label": "noOfContributors",
						"offset": 0,
						"slot": "6",
						"type": "t_uint256"
					}
				],
				"types": {
					"t_address": {
						"encoding": "inplace",
						"label": "address",
						"numberOfBytes": "20"
					},
					"t_mapping(t_address,t_uint256)": {
						"encoding": "mapping",
						"key": "t_address",
						"label": "mapping(address => uint256)",
						"numberOfBytes": "32",
						"value": "t_uint256"
					},
					"t_uint256": {
						"encoding": "inplace",
						"label": "uint256",
						"numberOfBytes": "32"
					}
				}
			},
			"userdoc": {
				"kind": "user",
				"methods": {},
				"version": 1
			}
		}
	}
}